:100000000C94B8080C94FF080C94FF080C9423324D
:100010000C94FF080C94FF080C94FF080C94FF0844
:100020000C94FF080C94FF080C944A2F0C94223077
:100030000C940F1D0C94FF080C94FF080C94FF08FF
:100040000C94FF080C94FF080C94FF080C94FF0814
:100050000C94FF080C94262F0C94FF080C94FF08B6
:100060000C94FF080C94FF080C94FF080C94FF08F4
:100070000C94FF080C94FF080C94FF080C94FF08E4
:100080000C94FF080C94FF080C94FF080C94FF08D4
:100090000C94FF080C94FF080C94FF080C94FF08C4
:1000A0000C94FF080C94FF080C94FF0805010980CC
:1000B000A101850319012AB700150126B700950192
:1000C00075108100C0050C0901A101850419012AE0
:1000D000A002150126A002950175108100C005013E
:1000E0000906A1018506050719E029E71500250184
:1000F0009508750181020507190029EF15002501F2
:1001000095F075018102050819012905950575010C
:100110009102950175039101C00660FF0961A1017B
:100120000962150026FF00952075088102096315F4
:100130000026FF00952075089102C005010906A15F
:1001400001050719E029E7150025019508750181CA
:10015000029501750881010507190029FF15002680
:10016000FF00950675088100050819012905950508
:1001700075019102950175039101C007087F080779
:10018000003E5B4F5B3E003E6B4F6B3E001C3E7C77
:100190003E1C00183C7E3C18001C577D571C001C60
:1001A0005E7F5E1C0000183C180000FFE7C3E7FFFD
:1001B00000001824180000FFE7DBE7FF0030483A92
:1001C000060E00262979292600407F0505070040F4
:1001D0007F05253F005A3CE73C5A007F3E1C1C0827
:1001E00000081C1C3E7F0014227F2214005F5F0069
:1001F0005F5F0006097F017F00006689956A0060E5
:10020000606060600094A2FFA2940008047E04086D
:100210000010207E20100008082A1C0800081C2A54
:100220000808001E10101010000C1E0C1E0C0030D0
:10023000383E383000060E3E0E060000000000007A
:100240000000005F000000000700070000147F149A
:100250007F1400242A7F2A120023130864620036C8
:100260004956205000000807030000001C224100EE
:10027000000041221C00002A1C7F1C2A0008083EA6
:100280000808000080703000000808080808000016
:1002900000606000002010080402003E5149453E05
:1002A0000000427F4000007249494946002141490F
:1002B0004D33001814127F10002745454539003C86
:1002C0004A49493100412111090700364949493657
:1002D00000464949291E0000001400000000403477
:1002E000000000000814224100141414141400002B
:1002F00041221408000201590906003E415D594E91
:10030000007C1211127C007F49494936003E414170
:100310004122007F4141413E007F49494941007FE0
:1003200009090901003E41415173007F0808087F17
:100330000000417F4100002040413F01007F081440
:100340002241007F40404040007F021C027F007F2E
:100350000408107F003E4141413E007F0909090623
:10036000003E4151215E007F091929460026494976
:1003700049320003017F0103003F4040403F001F1E
:100380002040201F003F4038403F006314081463A2
:10039000000304780403006159494D4300007F4184
:1003A000414100020408102000004141417F000447
:1003B00002010204004040404040000003070800E2
:1003C000002054547840007F284444380038444486
:1003D000442800384444287F0038545454180000FE
:1003E000087E09020018A4A49C78007F0804047801
:1003F0000000447D4000002040403D00007F102868
:1004000044000000417F4000007C04780478007CB8
:100410000804047800384444443800FC18242418A4
:100420000018242418FC007C0804040800485454D4
:1004300054240004043F4424003C4040207C001C21
:100440002040201C003C4030403C00442810284400
:10045000004C9090907C004464544C44000008365A
:100460004100000000770000000041360800000253
:1004700001020402003C2623263C0000000000008C
:1004800000404040F0F8F8FF38FFF8F83FF8F8FF78
:1004900038FFF8F8F040404000000000000080C045
:1004A000C0C0800000C0C08000000080C0C000C08C
:1004B000C0000080C0C00000000000C0C0C0C0C0BC
:1004C00000C0C000000000000000000000000000AC
:1004D000000000000000000000000000000000001C
:1004E000000000000000000000000000000000000C
:1004F00000000000000000000000C0F0F8FC3E1EFC
:1005000006010000007F4141417F007F4141417F62
:10051000000080C0E07E5B4F5BFEC00000C000DCDE
:10052000D7DEDEDED7DC00C00000000000000000E7
:1005300000000000000000000000000000000000BB
:1005400000494949FFFFFFFFE0DFBFBF00BFBFDF3A
:10055000E0FFFFFFFF49494900000000001F3F6026
:1005600060E0BF1F007F7F071E381E077F7F007F70
:100570007F0E1F3B716000000000007F7F0C0C0CA1
:10058000007E7E007F7E0303007F7E03037E7E036A
:10059000037F7E000F3E703C063C703E0F00327BB6
:1005A00049493F7E007F7E0303001E3F69696F2635
:1005B00000000000000000000000030F1F3F3C7817
:1005C00070600000007F4141417F007F4141417FD9
:1005D00000307B7F7830202030787F3B0003000F95
:1005E0007F0F0F0F7F0F00030000000000000000CE
:1005F00000000000000000000000000000000000FB
:1006000000010101070F0F7F0F7F0F0F7E0F0F7F7C
:100610000F7F0F0F07010101000000000000000024
:1006200000000101000000000000000000000000C8
:1006300000000000000000000000000000000000BA
:1006400000000000000000000000000000000000AA
:10065000000000000000000000000000000000009A
:10066000000000000000000000000000000000008A
:10067000000000000000000000000000000000007A
:10068000000000000000000000000000000000006A
:10069000000000000000000000000000000000005A
:1006A000000000000000000000000000000000004A
:1006B000000000000000000000000009025B0003D1
:1006C0000100A0FA09040000010301010009211141
:1006D000010001224000070581030800010904010F
:1006E000000203000000092111010001222200077D
:1006F000058203200001070503032000010904020D
:10070000000103000000092111010001226D000712
:1007100005840320000112010002000000081D8D65
:100720009D9D02000102000116034B00790072003A
:100730006900610020007200650076003200000050
:100740001003730070006C00690074006B0062009D
:10075000000004030904AA00A900170015000800FE
:100760001A0014002B004E004B000A00090007007D
:1007700016000400296139002F0005001900060049
:100780001B001D00E10001512C002864E30004510E
:10079000000000000000000000001C0018000C0019
:1007A000120013002A00000000000B000D000E00D4
:1007B0000F00330034710351300011001000360077
:1007C00037003800E50002512C00E600E700650024
:1007D0000000000000000100010001000100010014
:1007E000010001000100010001000100E100E00042
:1007F000E200E300010047000100010001000100E8
:1008000001000100010001000100010001000100E0
:10081000000000000000000000004B004A005200F1
:100820004D00A9004C00000000004E005000510097
:100830004F00AA004900010001004800AC00AE00D2
:10084000AB00A8004600010001000100010001000A
:100850000000000000000100010022002100200033
:100860001F001E00350001000100220221022002AB
:100870001F021E02350201002F0064002D0033000C
:1008800033023100310201000100010001000100CA
:1008900000000000000000000000230024002500EC
:1008A000260027002E00000000002302240225025B
:1008B000260227022E020100300032002D023600EF
:1008C000370038003802010001000100010001007A
:1008D000000000000000010001000100450044008C
:1008E00043004200010001000100010041004000FE
:1008F0003F003E0001000100010001003D003C00FE
:100900003B003A000100010001000100010001006C
:1009100000000000000000000000010001000100D4
:10092000010001000100000000000100E500E400FA
:10093000E200E700010001000100010001000100E8
:10094000010001000100010001000100010001009F
:100950000000000000000100010001000100010092
:10096000010001000100010001000100010001007F
:10097000010001000100010001000100010001006F
:10098000010001000100010001000100010001005F
:100990000000000000000000000001000100010054
:1009A00001000100010000000000C25CC75CC55CE2
:1009B000C95CC35C0100010001000100C85CC65CA9
:1009C000CA5CC45C010001000100010001000100DB
:1009D00000000000000000AE00AF222325262829D9
:1009E0002A2C2D2F3032333536383A3B3D3E4042AB
:1009F000434547494A4C4E5051535557595A5C5EEE
:100A00006062646668696B6D6F71737577797B7D01
:100A10007F81838587898A8C8E90929496989A9C00
:100A20009E9FA1A3A5A7A8AAACAEAFB1B3B4B6B818
:100A3000B9BBBCBEBFC1C2C3C5C6C7C9CACBCCCD7A
:100A4000CED0D1D2D2D3D4D5D6D7D7D8D9D9DADA55
:100A5000DBDBDBDCDCDCDCDCDDDDDDDDDCDCDCDCD5
:100A6000DCDBDBDBDADAD9D9D8D7D7D6D5D4D3D209
:100A7000D2D1D0CECDCCCBCAC9C7C6C5C3C2C1BFE7
:100A8000BEBCBBB9B8B6B4B3B1AFAEACAAA8A7A54B
:100A9000A3A19F9E9C9A98969492908E8C8A898707
:100AA0008583817F7D7B79777573716F6D6B6968E5
:100AB000666462605E5C5A5957555351504E4C4AB9
:100AC0004947454342403E3D3B3A38363533323064
:100AD0002F2D2C2A292826252322FFAA7F554000C6
:100AE00001010101010101010102020202020202EF
:100AF00002020303030303030303040404040404C2
:100B00000405050505050606060606070707070787
:100B100008080808090909090A0A0A0B0B0B0C0C3A
:100B20000C0D0D0D0E0E0E0F0F0F101011111112D6
:100B30001213131414151516161717181819191A55
:100B40001A1B1B1C1D1D1E1E1F20202122222324B8
:100B500024252626272829292A2B2C2D2D2E2F30F7
:100B6000313232333435363738393A3B3C3D3E3F0B
:100B7000404142434445464748494A4C4D4E4F50F8
:100B8000515354555658595A5B5D5E5F61626465B6
:100B90006668696B6C6D6F7072737577787A7B7D40
:100BA0007E8082838587888A8C8E8F919395969894
:100BB0009A9C9EA0A2A3A5A7A9ABADAFB1B3B5B7B0
:100BC000BABCBEC0C2C4C6C9CBCDCFD1D4D6D8DB87
:100BD000DDDFE2E4E7E9EBEEF0F3F5F8FAFDFF0024
:100BE000DA1281FFD9F1DB20A4A62EAF00A0C0004D
:100BF000A1C800AED580A83FD300408D1420007F4F
:100C00003F1F643214643214783C1E1E140A05001F
:100C10000000000000000000000000008080C0E034
:100C2000F07078383C1C1E0E0E0E070707070707EA
:100C3000070707070707070707070E0E0E1E1C3CCE
:100C4000387870F0E0C080800000000000000000F4
:100C50000000000000000000000000000000000094
:100C60000000000000000000000000000000000084
:100C70000000000000000000000000000000000074
:100C80000000000000000000000000000000000064
:100C9000000000000000C0E0F07C3E1F0F070301D1
:100CA00080C0E0F078383C1C1E0E0E070787E77FF7
:100CB0001FFFFF1F7FE78707070E0E1E1C3C3878BB
:100CC000F0E0C0800103070F1F3E7CF0E0C0000091
:100CD0000000000000000000000000000000000014
:100CE0000000000000000000000000000000000004
:100CF00000000000000000000000000000000000F4
:100D000000000000000000000000000000000000E3
:100D1000000000F0FCFF1F07010000C0F0FCFEFF18
:100D2000F7F3B1B03030303030303078FE8701002A
:100D300000FFFF00000187FE783030303030303067
:100D4000B0B1F3F7FFFEFCF0C0000001071FFFFC8D
:100D5000F0000000000000000000000000000000A3
:100D60000000000000000000000000000000000083
:100D70000000000000000000000000000000000073
:100D80000000000000000000000000000000000063
:100D90000000FFFFFF0000000000FEFFFF01010751
:100DA0001E78E181838386868C8C9898B1B7FEF893
:100DB000E0FFFFE0F8FEB7B198988C8C86868383BD
:100DC00081E1781E070101FFFFFE0000000000FF27
:100DD000FFFF00000000FFFF0000C0C03030000037
:100DE000F0F0000000000000F0F00000F0F0C0C0E3
:100DF00030303030C0C000003030F3F3000000006D
:100E00000000303030303030C0C000000000000042
:100E10000000FFFFFF00000000007FFFFF8080E078
:100E2000781E8781C1C16161313119198DED7F1F34
:100E300007FFFF071F7FED8D191931316161C1C1B6
:100E400081871E78E08080FFFF7F0000000000FFA8
:100E5000FFFF000000003F3F03030C0C3030000098
:100E600000003333333333330F0F00003F3F0000B4
:100E7000000000000000000030303F3F3030000034
:100E80000C0C3333333333333F3F0000000000009A
:100E90000000000F3FFFF8E0800000030F3F7FFFDE
:100EA000EFCF8D0D0C0C0C0C0C0C0C1E7FE1800098
:100EB00000FFFF000080E17F1E0C0C0C0C0C0C0CE2
:100EC0000D8DCFEFFF7F3F0F03000080E0F8FF3F65
:100ED0000F00000000000000000000000000000003
:100EE0000000000000000000000000000000000002
:100EF00000000000000000000000000000000000F2
:100F000000000000000000000000000000000000E1
:100F100000000000000003070F3E7CF8F0E0C080F6
:100F20000103070F1E1C3C38787070E0E0E1E7FE1B
:100F3000F8FFFFF8FEE7E1E0E0707078383C1C1E37
:100F40000F07030180C0E0F0F87C3E0F07030000AC
:100F50000000000000000000000000000000000091
:100F60000000000000000000000000000000000081
:100F70000000000000000000000000000000000071
:100F80000000000000000000000000000000000061
:100F90000000000000000000000000000101030745
:100FA0000F0E1E1C3C3878707070E0E0E0E0E0E06E
:100FB000E0E0E0E0E0E0E0E0E0E070707078383C35
:100FC0001C1E0E0F070301010000000000000000BE
:100FD0000000000000000000000000000000000011
:100FE0000000000000000000000000000000000001
:100FF00000000000000000000000000000000000F1
:1010000000000000000000000000000000000020C0
:10101000202020202020005343524C434B2000200E
:10102000202020202020004341504C434B20002012
:10103000202020202020004E554D4C434B200041C5
:10104000646A7573740A0046756E6374696F6E0A1C
:101050000053796D0A004E61760A00426173650A99
:10106000004C617965723A20004B79726961207297
:101070006576312E3020772F205649410A0A0080AC
:101080008182838485868788898A8B8C8D8E8F90D8
:1010900091929394A0A1A2A3A4A5A6A7A8A9AAAB44
:1010A000ACADAEAFB0B1B2B3B4C0C1C2C3C4C5C6BB
:1010B000C7C8C9CACBCCCDCECFD0D1D2D3D40000F3
:1010C0000000000000000000000000000000000020
:1010D0000000000000000000000000000000000010
:1010E0000000007E0F00D4FFFFFFC7000000780063
:1010F000000000000000002A2B2800000000000073
:101100000000000000000000000029000000002C8A
:101110001E3420212224342627252E362D37382729
:101120001E1F202122232425263333362E37381F35
:101130000405060708090A0B0C0D0E0F10111213F7
:101140001415161718191A1B1C1D2F3130232D3595
:101150000405060708090A0B0C0D0E0F10111213D7
:101160001415161718191A1B1C1D2F3130354C0079
:1011700011241FBECFEFDAE0DEBFCDBF04B603FE01
:1011800027C08091130890911408A0911508B09180
:1011900016088730904BA740B04BD1F4109213083B
:1011A00010921408109215081092160814BE84B7F5
:1011B000877F84BF0FB6F894A895809160008861FE
:1011C00080936000109260000FBEE0E0F8E30995A4
:1011D00012E0A0E0B1E0E6E2F9E602C005900D926F
:1011E000A435B107D9F728E0A4E5B2E001C01D920B
:1011F000A331B207E1F70E94E6270C9461340C9406
:101200000000982F82958F7011F0982F84E0292F7D
:101210002695269511F08E5F922F969509F08F5F97
:101220000895990F990F990FE92FE80F877041E002
:1012300001C0440F8A95EAF7E695E695E69583E0C6
:10124000E89FF0011124EF54F84F30E020E070E007
:101250005191DF011197CB01022E02C0969587951F
:101260000A94E2F7817081958527842385278C93E2
:101270002F5F3F4F2330310559F70895E92FEE0FC7
:10128000EE0FEE0FE80F982F9770E695E695E6952E
:1012900083E0E89FF0011124EF54F84F50E040E064
:1012A00080E0219130E0092E02C0369527950A94FE
:1012B000E2F721703327042E01C0220F0A94EAF7C7
:1012C000822B4F5F5F4F4330510559F7089580914E
:1012D000DC079091DB07981301C008958F5F87703A
:1012E000FACF90917E019923E1F09091D70797FF73
:1012F00018C0E82FE695E695E695803FF0F4F0E01B
:10130000E95AFD4F877021E030E0A90102C0440F87
:10131000551F8A95E2F7CA018095928189238283BD
:101320000895E9E5F2E09191891303C0DF01119777
:101330001C9252E0EF35F507B1F70895982F90957C
:101340008091DA0789238093DA0708958091D30783
:1013500081111092D30708958091DA079091D907EF
:10136000892B9091C907892B809357029091D307BD
:101370009923A1F0892B8093570280917E018823C5
:1013800041F18091D70787FF24C08EE1E9E5F2E0C3
:1013900090E0815000F591110E94A609E091AF07FD
:1013A000F091B0073097E1F080917E01882359F0E9
:1013B0008091D70787FF07C080915702809358021A
:1013C00086E0809357020280F381E02D87E592E06A
:1013D000099486E0DBCF21912223D9F29F5FD9CFF8
:1013E0000895882339F09091DA07892B8093DA07E2
:1013F0000C94AC090895882321F00E949E090C9456
:10140000AC0908959091D70792FF06C0282F287144
:101410002830F9F4877F846093FF06C0282F287155
:101420002831F1F4877E84612091D80720FF06C01F
:10143000382F38713830D9F4877F816021FF06C09A
:10144000282F28712831D1F4877E816194FD877E11
:101450000895282F24712430F9F68B7F8860DCCF23
:10146000282F2471243101F78B7E8861DDCF382F3E
:101470003171313019F78E7F8860E0CF282F2171CC
:10148000213121F78E7E8861E1CFCF93DF93EC018C
:10149000803E910509F45EC048F58133910509F459
:1014A000A1C088F48932910509F495C08A9709F49E
:1014B000A0C0C130D10529F1CE010497813A910530
:1014C00008F054C01EC089339105E9F182389105B6
:1014D000D1F1C59709F478C0C83AD10508F090C099
:1014E000C53AD10530F3A497D0640BC0843E910572
:1014F00009F44FC050F4823E9105D9F1833E910525
:10150000E9F1CE01DF91CF910895863E910509F46E
:101510004BC0873E910509F44CC0811523E5920725
:1015200008F08BC0811532E5930708F0FDC0C115A6
:1015300080E5D80708F077C0C11520E4D20760F233
:10154000DF70D06ADECF8091D7078370D1F2C0EE12
:10155000D0E0D7CF8091D70780FD11C19091D807F7
:1015600090FFCFCFC3EED0E084FFCBCFD0E0C0E080
:10157000C8CF8091D70782FDF5CFC3CF8091D70721
:1015800082FD00C19091D80790FDE1CF84FFB9CFD3
:10159000EDCF8091D80781FFB4CF8091D707C7EEF8
:1015A000D0E084FDE3CFADCF8091D70783FDF7CFA7
:1015B000A8CF8091D70783FDE8C09091D80791FF0D
:1015C000E5CFC4EED0E09DCF8091D70785FF99CFBE
:1015D000C9E2D0E096CF8091D70785FF92CFC5E3CF
:1015E000D0E08FCF8091D70786FF8BCFCAE2D0E0C3
:1015F00088CF8091D70786FF84CFC1E3D0E081CF29
:10160000CF3BD10508F468C0C83ED10528F4C03EE0
:10161000D10508F4ABCF75CFCE019A9581159F41C6
:1016200008F0A4CF6ECFC11581E5D80708F45FC0DC
:10163000DC2FCC27C16FD06A64CF811529E59207D2
:10164000A0F5811538E5930708F086C0C11585E53A
:10165000D807C8F4C11524E5D20708F078C09E0168
:101660002370332781E090E002C0880F991F2A95EC
:10167000E2F7C695C69530E2C39FE0011124C82B5E
:10168000D92BDA683ECFCE0195558F3F910511F0E9
:1016900008F06CCF8C2F0E94020AC82FD0E0DC2FFC
:1016A000CC27CC27DF71D0622CCFC1158AE5D807B3
:1016B00008F457C0CE0190568115904208F056CFDD
:1016C0008D2F8F710E94020A90E0982F882788271B
:1016D0009F718C2BEC01E7CFC85AD0E0CC0FDD1FF7
:1016E000CB5DDD4F0990D881C02DD4640ACF9E0117
:1016F00074E0369527957A95E1F723708C2F8695BF
:101700008695837030E2839FC0011124922BC370B1
:1017100021E030E002C0220F331FCA95E2F7822B8E
:10172000932BEC01DC68EDCE9C012370332781E024
:1017300090E002C0880F991F2A95E2F7C695C695DA
:1017400020E2C29FE0011124C82BD92BEBCFDC2F64
:10175000CC27C46FD06AD5CED82FCC27C06FD06A23
:10176000D0CE8C2F8F700E94020A34E0D695C79598
:101770003A95E1F7CF709C2FEC01D069C2CEC9E356
:10178000D0E0BFCEC2EED0E0BCCEC6EED0E0B9CE47
:1017900080E00895F894E82FE295EF70F0E041A121
:1017A0008F7021E030E0B90102C0660F771F8A9583
:1017B000E2F7CB01962F9095942391A392A1892BC8
:1017C00082A37894089508956F927F928F929F924A
:1017D000AF92BF92CF92DF92EF92FF920F931F933F
:1017E000CF93DF93B82EA62E8901E42FF0E0E152CB
:1017F000F54F611119C0E4918E2F2E2FD80111964B
:101800002C931197EC9312968C93DF91CF911F91AB
:101810000F91FF90EF90DF90CF90BF90AF909F908F
:101820008F907F906F900895E62EF12C249186E0A2
:10183000B89E60011124CFEFD0E0C601BE010E9426
:101840009E338B2D90E0880F991F35E5369FA001C0
:10185000379F500D1124841B950B982F990F980FCB
:10186000AE014E195F09249FD001259FB00D1124B0
:10187000EB2FA99E50011124AB2CBB24AE014A19B9
:101880005B09249F5001259FB00C11248B2D3E0134
:10189000691A71086E9C40016F9C900C7E9C900CA4
:1018A0001124892C9924C819D9092C9FA0012D9F96
:1018B000500D112463307105D1F09CEFC91693E0EF
:1018C000D90670F461307105B1F062307105B9F07C
:1018D000FFEFCF16D10408F091CF8B2FE52F8ECFDD
:1018E0006430710579F066307105B9F387CFEB2D5F
:1018F000822F2B2F83CFE22F2B2D8B2F7FCF852F66
:10190000E22FF7CF822F252F79CF8091CE07982F06
:101910009E7F61F4817082608093CE078091D107B1
:10192000873918F086E98093D10708958434B0F39D
:1019300081708264F1CFEBECF7E0118282818460E8
:1019400082830895FA0181110994FB01FDCFFC0106
:10195000680F791F8FEF91E32191822728E030E013
:1019600087FF09C0880F892721503109C9F7E61779
:10197000F70791F70895880FF7CF2091AF023091C4
:10198000B0022817390771F09093B0028093AF022C
:10199000E091AF07F091B007309721F00680F78112
:1019A000E02D099408952091AD023091AE022817E0
:1019B000390771F09093AE028093AD02E091AF07CA
:1019C000F091B007309721F00084F185E02D099463
:1019D0000895882329F19CEF980F913A20F40E94F2
:1019E00071090C94AC0990E2980F983050F487700C
:1019F00091E001C0990F8A95EAF7892F0E949E090C
:101A0000F0CF9BE5980F933020F490E080E00C94A9
:101A1000BD0C885A873120F490E080E00C94D30C00
:101A2000089590E080E00E94BD0C90E080E00E946C
:101A3000D30C1092D9071092C9070C94AC0980936B
:101A4000D4070C94110D8093D5070C94110D21E04F
:101A500030E001C0220F8A95EAF78091D507822BEA
:101A60000C94230D21E030E001C0220F8A95EAF7A3
:101A700020958091D50782230C94230D9091D60751
:101A8000809589238093D607282F277091F4282FDB
:101A9000082E000C330B9217130659F09091D807BB
:101AA00092FD07C08595859585950E94320D10920F
:101AB000D60708959C0180917E018823C1F0809112
:101AC000D70787FF14C0862F869586958695603F39
:101AD000F8F4F901E80FF11D677021E030E001C072
:101AE000220F6A95EAF78281822B82830895F90199
:101AF00032968FEF90E04191641751F08F3F19F4C7
:101B0000411101C0892F9F5F9630A9F78F3F09F4DB
:101B10000895280F311D87FD3A95F90162830895D4
:101B2000CF93C82F882309F463C08CEF8C0F813AC0
:101B3000A8F580917E01882301F18091D70787FF66
:101B40001CC0EC2FE695E695E695F0E0E95AFD4FCE
:101B5000828190E04C2F477021E030E002C0220FDC
:101B6000331F4A95E2F782239323892B79F08C2F38
:101B70000E9471090E94AC0909C0E9E5F2E0819177
:101B8000C817A9F322E0EF35F207C9F76C2F87E5F4
:101B900092E00E945A0DCF910C94AC0980E28C0F18
:101BA000883068F4C77021E030E001C0220FCA9588
:101BB000EAF78091DA07822B8093DA07ECCF8BE586
:101BC0008C0F833038F42C2F2452330BC901CF9162
:101BD0000C94BD0CC85AC73158F4EC2FF0E0EE0F4E
:101BE000FF1FEB5DFD4F80819181CF910C94D30C51
:101BF000CF910895CF93DF9300D000D0CDB7DEB75B
:101C00008FB7F8942091690730916A0740916B076C
:101C100050916C0729833A834B835C838FBF698122
:101C20007A818B819C810F900F900F900F90DF91A4
:101C3000CF9108950C94FA0D8091AC020895089507
:101C40000895FC01CB01209187023091880226176C
:101C5000370790F0009729F42091E8002E77209321
:101C6000E80040E0009751F4411108C08091E8007D
:101C700082FF31C080E00895C901F3CF2091810730
:101C80002223A9F12530A9F12091E80023FD2DC0E0
:101C90002091E80022FDEACF2091E80020FFE2CF6A
:101CA0003091F3002091F200009719F028303105AF
:101CB00058F041E02830310509F040E02091E8007B
:101CC0002E772093E800CECF41914093F100019709
:101CD0002F5F3F4FE9CF80918107882341F0853006
:101CE00041F08091E80083FFC1CF81E0089582E058
:101CF000089583E008958091810287FF13C0809149
:101D0000E80082FF06C08091E8008B778093E800AE
:101D100004C0809181078111F2CF089580918107DD
:101D20008823D9F38091E80080FFF8CF8091E80004
:101D30008E77ECCF2091E4003091E50095E6A90183
:101D40002091EC00822F817020FF06C08091E80076
:101D500080FF06C080E008952091E80022FD1AC0AF
:101D600080918107882389F0853089F08091EB008C
:101D700085FD0FC02091E4003091E5004217530724
:101D8000F9F29150E1F684E0089582E0089583E04D
:101D9000089581E00895E8EDF0E080818E7F8083F2
:101DA0001092E2001092DA001092E100A0EEB0E092
:101DB0008C9181608C9380818F77808319BCA7ED93
:101DC000B0E08C918E7F8C9380818F7E8083109287
:101DD00080020895EF92FF920F931F93CF937C019F
:101DE0008B010E949A0EC82F811117C08091E800C4
:101DF00085FD0BC08091E8008E778093E8000E94FB
:101E00009A0E882399F3C82F08C0F70181917F01AA
:101E10008093F1000150110949F78C2FCF911F9148
:101E20000F91FF90EF9008958091D507982F9670AD
:101E3000963019F488600C94230D877FFCCFCF93E4
:101E4000DF93482F2091F7023091F802B9016A53CD
:101E500073402A533F4F21303440C8F020E034E033
:101E6000261B370BC0913C07D0913D07E42FF92F7B
:101E7000CB01260F371F61E070E08217930750F007
:101E8000D0933D07C0933C07DF91CF91089520E0A8
:101E900034E0E8CF4491DC01A65CBC4F5C9145176F
:101EA00081F04C93AC01A6E056954795AA95E1F7D1
:101EB000DB0102C0AA0FBB1F4A95E2F7AD01CA2B96
:101EC000D52B01963196D9CF982F9093E900242FE6
:101ED000762F50E0891731F07091EC002091ED00E1
:101EE0005091F00021FD06C09F5F973071F78093FD
:101EF000E90008953091EB003E7F3093EB00309184
:101F0000ED003D7F3093ED003091EB003160309378
:101F1000EB007093EC002093ED005093F0002091C3
:101F2000EE0027FDE1CF0895CF92DF92EF92FF926E
:101F30000F931F93CF93DF93C8EDD0E088818F7EFE
:101F40008883E7EDF0E080818160808384E082BF58
:101F500081E08093800288818E7F888302EE10E08A
:101F6000F80110821092DA0081EEC82ED12CF60111
:101F7000108288818F7788838881806888838881B0
:101F80008F7D888319BC1092810710927F02109276
:101F9000F10210927E0290EEE92EF12CF701808181
:101FA0008B7F808388818160888342E060E080E06D
:101FB0000E94640FF60180818E7F8083F80180810A
:101FC00081608083808188608083F70180818E7F3B
:101FD0008083888180618883DF91CF911F910F91E9
:101FE000FF90EF90DF90CF9008950F931F93CF93C2
:101FF000C82F10E000E0893311F400E510E08C2FC9
:102000000E94900D0115110531F48C2FCF911F9175
:102010000F910C94E90C8FE99FE00197F1F700C054
:10202000000001501109EECF80918207811110C08C
:102030008091D80080618093D8008AE18A95F1F779
:1020400000C08091D90080FF0AC081E080938207A0
:1020500081E090918207913009F080E0089582E05C
:10206000809382070E94CB0E10928107F1CFCF930D
:10207000DF9300D000D0CDB7DEB70E9414108823C4
:1020800041F00F900F900F900F90DF91CF910C9433
:10209000FA0D0E94FA0D69837A838B839C83809169
:1020A000AB079091AC07A091AD07B091AE07298125
:1020B0003A814B815C81280F391F4A1F5B1FCA017F
:1020C000B9010F900F900F900F90DF91CF9108956D
:1020D0000E941410882351F0E091AF07F091B007EF
:1020E000309721F00190F081E02D099480E008956F
:1020F000AF92BF92CF92DF92EF92FF920F931F9316
:10210000CF93DF93F82EE92ED62EC72E890180912A
:102110008607AA24A394B12C8A3018F48AE0A82E4A
:10212000B12CC1E0D0E0F8946D2D7C2D8F2D9E2D2B
:10213000F80109957894811104C02196AC16BD066A
:102140005CF4DF91CF911F910F91FF90EF90DF90A2
:10215000CF90BF90AF900895CC9F9001CD9F300D50
:10216000300D112490E080E045E34A95F1F700003E
:10217000019628173907C1F7D6CF60910E018091DB
:10218000CE0780FF20C080910D0143E0849FC001F5
:1021900011248D549D4F539A2BB1277F3BB138604A
:1021A0005FB7F894FC01649FE00DF11D1124BF019D
:1021B00068177907D1F45FBF8FE594E00197F1F7D5
:1021C00000C00000089580910F019091100123E05C
:1021D000829FF0011124ED54FD4F8917A0F6118262
:1021E000108212828F5F3396F8CFFC014191CF01AC
:1021F000E8E03BB9000000C047FF2BB9440F0000E6
:1022000000C000C000C02BB900C0EA9591F7D0CF44
:10221000FF920F931F93CF93DF93EC018C81811179
:1022200009C081E08C831092B10292E09093010189
:102230008093000110910F019091100183E0189F8D
:10224000F0011124ED54FD4F812F891768F100E052
:1022500093E0F92E60911101061760F10E94BD1004
:10226000809100012091B102280F2093B10290913A
:102270000101980F90930101191654F4022E000CDD
:10228000330B409111014150550B2417350734F0A1
:10229000819580930001813009F41C82DF91CF91F8
:1022A0001F910F91FF9008951182108212828F5F0B
:1022B0003396CBCFE02FF0E070E0CF010E94CC331B
:1022C000810F482F50E02091B102022E000C330BF9
:1022D000E217F307D4F020910101022E000C330B1A
:1022E0002E173F0794F08F9D900111242D543D4FE0
:1022F0004091D107473908F046E96091D0078091B5
:10230000CF070E94E40B0F5FA5CFFA01EE0FFF1F6E
:10231000E40FF51FED54FD4F118210821282F3CFAE
:10232000EF92FF921F93CF93DF93EC0110E0EE2426
:10233000EA94F12C60911101161770F00E94BD1003
:102340009A818C8190FF28C08F5F8C83DF91CF9121
:102350001F91FF90EF90089580910F01810F9927B1
:10236000991F9C01220F331F280F391F2D543D4FF9
:102370004091D107473908F046E970E0C7010E9453
:10238000CC33962F8C816091D007199F800D11243A
:102390000E94E40B1F5FCECF8150D7CF9F92AF92A8
:1023A000BF92CF92DF92EF92FF920F931F93CF9342
:1023B000DF93EC018A81BB24BA9480FD02C0BB2468
:1023C000B3948C81A0901101811109C091E0B912E0
:1023D00002C08FEF8A0D8093B20281E08C83F12CD2
:1023E000E12CEA14F0F00E94BD109091B202E1E0FD
:1023F000BE125CC0809111018150992319F08FEFBA
:10240000890F91E08093B2029C83DF91CF911F915D
:102410000F91FF90EF90DF90CF90BF90AF909F9083
:10242000089580910F018E0D9F2D911D8C01000F3D
:10243000111F080F191F0D541D4FF8011182108232
:10244000128234E0C32ED12C912C8091B202890DDE
:10245000853144F164E10E94BE33892F082E000CBF
:10246000990B8E159F05A9F48091D1078C9DA00131
:102470008D9D500D11245595479555954795473994
:1024800008F046E998016091D0078091CF070E943B
:10249000E40B9B0CF1E0CF1AD108B9F68FEFE81AE4
:1024A000F80A9FCF87FFDACF8A0DD8CF892F90E027
:1024B00001966091110170E00E94CC33982FA2CF59
:1024C000EEECF7E080818E7F80830E949B0CEBEC2A
:1024D000F7E08281816082832FEF80E792E02150D4
:1024E00080409040E1F700C000000C94BD10909136
:1024F000CE0790FF14C090910F012091100133E09E
:10250000939FF0011124ED54FD4F921710F00C949D
:10251000BD108183608342839F5F3396F6CF089519
:10252000CF93DF9300D00F92CDB7DEB79091CE0757
:1025300090FF12C0473908F046E99E012F5F3F4FD8
:102540000E94E40B4B8169818A810F900F900F905C
:10255000DF91CF910C9477120F900F900F90DF9135
:10256000CF910895CF93DF93EC01EC81F0E0E65238
:10257000F64F4491EEECF7E0628181810E94901267
:102580008C818F5F8C83DF91CF910895CF93DF9300
:10259000EC01EEECF7E0438162818C810E949012A5
:1025A0008C818F5F8C83DF91CF91089581E0809340
:1025B000E00080E28093D8001092C9008FE19EE491
:1025C0000197F1F700C0000087E090EBDC018093F9
:1025D000130890931408A0931508B093160888E187
:1025E0009CE00FB6F894A895809360000FBE90937E
:1025F0006000FFCFCF93DF93D82FC92F80917E014A
:102600008823C1F18091D70787FF34C060E284E05E
:102610008093E9008FEF9091E800815095FD06C00E
:1026200095ED9A95F1F700008111F5CF8091E800C2
:1026300085FF1DC080917E0170E050E040E0811177
:1026400004C050E040E068E070E08D2F9C2F0E94B5
:10265000EA0E8091E8008E778093E80080E2ED2F0B
:10266000FC2FACE8B2E001900D928A95E1F7DF9182
:10267000CF91089568E081E0CBCF80938902709379
:102680008B0260938A02809181078430F9F48093F1
:10269000E9008FEF9091E800815095FD06C095ED1F
:1026A0009A95F1F700008111F5CF8091E80085FF40
:1026B0000DC050E040E063E070E089E892E00E94E5
:1026C000EA0E8091E8008E778093E8000895BC01BF
:1026D00083E00C943D13BC0184E00C943D1383E231
:1026E00090E00E941934823289F484E290E00E94E2
:1026F0001934823059F485E290E00E94193491E057
:10270000843109F090E0892F8170089580E0FCCF3A
:102710000F931F93CF93DF9320E1629FE001112479
:1027200050E0440F551FC40FD51F30E8839FC001F0
:102730001124C80FD91FCE0187960E941934082F83
:1027400010E0102F0027CE0188960E9419349801BE
:10275000282BC901DF91CF911F910F910895462F2A
:10276000672F853030F4972F942B983010F40C9409
:10277000881390E080E00895DF92EF92FF920F932C
:102780001F93CF93DF937C010091D5078091D407ED
:10279000082BC7E0D0E010E0DC2EC8010C2E02C0F0
:1027A000959587950A94E2F780FD0CC02197A0F7D4
:1027B000D12C8D2DDF91CF911F910F91FF90EF9034
:1027C000DF900895B7018C2F0E94AF130E94450A35
:1027D000019761F3EECF0F931F93CF93FC0182819A
:1027E00000811181882389F0662379F0C8010E9455
:1027F000BC13C82F682FC8010E941109B8018C2F83
:10280000CF911F910F910C94AF13C8010E943E0904
:10281000C82FF4CFCF93DF93D82FC92F0E94BC13BA
:102820006D2F7C2F0E94AF13DF91CF910C94450A3E
:102830000E940A14282F892F8F70392F32953F70EC
:10284000903C80F43A30B0F4343020F4323090F4DC
:1028500080E008953630E1F781E0283E88F0213F9E
:10286000B9F70EC03C3011F03F3091F78695869550
:102870008695089581E0203F39F018F4283E40F70E
:102880000895243F29F7FCCF089580917E01E9E562
:10289000F2E0882359F08091D70787FF07C08EE1C7
:1028A000DF011D928A95E9F70C94110D86E0F8CFAF
:1028B0001F93CF93DF93CDB7DEB7AA970FB6F894E7
:1028C000DEBF0FBECDBF81E892E0FC0101962091F2
:1028D000F100208322E089389207B9F780918202C3
:1028E000893009F458C0C8F4823009F4B5C0833087
:1028F00009F484C0813081F18091E80083FF86C2B1
:1029000080918102909182029A3008F07FC2E92F73
:10291000F0E0ED59FB4C0C94E0338A3009F48BC0A5
:102920008B3051F780918102813231F7809185029D
:1029300090918602892B01F78091E800877F809330
:10294000E8000E947B0E8091830280937E011092AA
:10295000DA070E944514D0CF80918102813A61F656
:102960008091E800877F8093E800809185029091B4
:102970008602892B61F460E28CE892E070E00E94AC
:10298000210E8091E8008B778093E800B5CF60E05E
:1029900090E080E0F3CF80918102813209F0ACCFEA
:1029A00080918502909186028D7F892B09F0A4CFBA
:1029B0008091E800877F8093E8008091E80082FFA3
:1029C00018C09091F3008091F200029731F4809149
:1029D000F100813011F0863021F48091F100809374
:1029E000AC028091E8008B778093E8000E947B0E18
:1029F00083CF809181078111E0CF7ECF80918102CA
:102A0000813A09F079CF8091850290918602892BD5
:102A100009F072CF8091E800877F8093E800809171
:102A2000E80080FFFCCF80917E018093F1008091CF
:102A3000E8008E77D9CF80918102813209F05CCF96
:102A40008091E800877F8093E8000E947B0E809150
:102A5000840280937D0250CF80918102813A09F0F7
:102A60004BCF8091E800877F8093E8008091E80059
:102A700080FFFCCF80917D02D8CF803899F08238DA
:102A800009F0C4C1809185028F70873008F0BEC103
:102A90008093E9008091EB0085FB882780F91092F4
:102AA000E90006C080917E029091F102911182604E
:102AB0009091E800977F9093E8008093F100109246
:102AC000F1008091E8008E779DC1882309F48BC1C5
:102AD000823009F09BC18091830281118EC1809167
:102AE00085028F702FEF280F263008F08FC180935A
:102AF000E9002091EB0020FF80C1933031F48091F8
:102B0000EB0080628093EB0078C19091EB009061C4
:102B10009093EB0021E030E001C0220F8A95EAF7A4
:102B20002093EA001092EA008091EB008860EACFDF
:102B300081116CC1109183021F778091E30080782E
:102B4000812B8093E3008091E800877F8093E800E9
:102B50000E947B0E8091E80080FFFCCF8091E30013
:102B600080688093E30082E0111183E08093810705
:102B70004DC18058823008F049C140918302509184
:102B800084024C3D83E0580799F583E08A838AE20A
:102B900089834FB7F894DE01139620E03EE051E2BE
:102BA000E32FF0E050935700849120FF03C08295FB
:102BB0008F703F5F8F708A30C8F0895C90E08D9392
:102BC0009D932F5F243161F74FBF8091E800877F8D
:102BD0008093E8006AE270E0CE0101960E94210E27
:102BE0008091E8008B778093E80010C1805DE6CF8C
:102BF0008091850290918602252F3327233031055D
:102C000009F44AC078F52130310509F479C08BE523
:102C100090E0EBEBF6E02230310509F0F7C02091AF
:102C2000E800277F2093E8002091870230918802F6
:102C30008217930708F49C0140E02115310509F043
:102C400064C0411162C08091E80082FDC9CF8091CB
:102C50008107882329F2853019F28091E80083FFEB
:102C6000F2CFBECF2132310509F43BC0223231050B
:102C700009F0CCC08330910508F0C8C0FC01EE0F0C
:102C8000FF1FEB53FE4F0190F081E02D8E539E4FBE
:102C9000DC018C9190E011C0CA019927413089F084
:102CA00082309105B1F0892B09F0B0C0E2E5F7E080
:102CB000E4918E2F90E0E2E5F7E0009709F4A6C0DA
:102CC000AECFE0E4F7E0E4918E2F90E0E0E4F7E0AF
:102CD000F4CFE8E2F7E0E4918E2F90E0E8E2F7E04D
:102CE000ECCF8330910508F091C0880F991FFC014B
:102CF000E553FE4F0190F081E02D89E090E08FCF09
:102D000082E190E0E6E1F7E08ACF809181078823B5
:102D100009F466CF853009F463CF8091E80083FD24
:102D20005FCF8091E80082FD8ECF8091E80080FF28
:102D300084CF9091F3008091F2002115310519F0B4
:102D40008830910550F041E0089709F040E080910B
:102D5000E8008E778093E80070CF44914093F100B3
:102D60003196215031090196E8CF803809F04EC0E4
:102D70008091E800877F8093E80080917F028093B4
:102D8000F1009FCE811142C0109183021230F0F504
:102D90008091E800877F8093E80010937F020E9473
:102DA0007B0E112311F084E005C08091E30087FDC4
:102DB000FACF81E08093810742E061EC81E00E94DC
:102DC000640F42E261EC84E00E94640F42E261EC35
:102DD00082E00E94640F42E260EC83E00E94640F94
:102DE0008091810713C080918302813079F481E062
:102DF000933009F080E08093F1021092E900809115
:102E0000E800877F8093E8000E947B0E8091E800B5
:102E100083FF0AC08091E800877F8093E80080915B
:102E2000EB0080628093EB00AA960FB6F894DEBFA9
:102E30000FBECDBFDF91CF911F910895CF93C09169
:102E4000D807C2FB992790F9981799F080FBC2F92F
:102E5000C093D8076091D70784E090E00E942D349A
:102E60006C2F82E290E00E942D3482E0CF910C948E
:102E70003E0DCF9108954F925F926F927F928F9205
:102E80009F92AF92BF92CF92DF92EF92FF920F93F9
:102E90001F93CF93DF93D0E0C0E030E8A32EB12C96
:102EA0008E01000F111F3E011DC0F6018590949008
:102EB000692DC7010E942D34682DC70101960E941B
:102EC0002D3422E0C20ED11C32E0E30EF11C4E1470
:102ED0005F0459F7005F1F4F88E0680E711CA01651
:102EE000B10681F0C301880F991F9C012A5A384FFF
:102EF0006901780137E2E30EF11C280187E3480EEF
:102F0000511CD3CF20E8A20EB11CC05CDF4FC034EF
:102F100031E0D30729F6DF91CF911F910F91FF90F8
:102F2000EF90DF90CF90BF90AF909F908F907F9069
:102F30006F905F904F900895CF93C82F6FEF8111DE
:102F400062E283E290E00E942D346FEFC11162E0F3
:102F500084E290E00E942D346FEFC11164E185E2BC
:102F600090E0CF910C942D34CF93DF93C7EAD2E059
:102F700060E0CE010E942D342196C11584E0D8076F
:102F8000B9F7DF91CF91089580E00E949C1760E02F
:102F900086E290E00E942D340E943B170E94B417F5
:102FA00081E00C949C170F931F93CF93DF938B01B9
:102FB000D82FC92F0E94850CA8016D2F7C2F88E087
:102FC00090E0DF91CF911F910F910C943F34EEEC84
:102FD000F7E083E0808311828FEF828386E9838329
:102FE0001482EBECF7E082818360828363E070E01F
:102FF0008FEF96E90C94D317CF93DF9300D000D0D6
:10300000CDB7DEB78091D207833018F48F5F8093FD
:10301000D2078091CE079091CF07A091D007B091B1
:10302000D10789839A83AB83BC83BC01CD010F9008
:103030000F900F900F90DF91CF910C94D317CF93F7
:10304000DF9300D000D0CDB7DEB78091D2078823C0
:1030500019F081508093D2078091CE079091CF07CD
:10306000A091D007B091D10789839A83AB83BC83A9
:10307000BC01CD010F900F900F900F90DF91CF9179
:103080000C94D317AF92BF92CF92DF92EF92FF9240
:103090000F931F93CF93DF9300D000D000D00F92F7
:1030A000CDB7DEB7082FF62E142FC22E9091CE0783
:1030B00090FF9DC0292F2695E22FF0E0EF52FE4FA2
:1030C00080818093CB079E7F923009F049C04739B9
:1030D00008F046E99E012F5F3F4F6F2D802F0E9421
:1030E000E40B4B8169818A810E9477128091CF071E
:1030F000801308C08091D0078F1104C08091D10740
:10310000811729F08091CD0782608093CD070093CD
:10311000CF07F092D0071093D107CC2009F467C0F5
:103120008091CE079091CF07A091D007B091D107A1
:103130008C839D83AE83BF83BC01CD0127960FB6E0
:10314000F894DEBF0FBECDBFDF91CF911F910F91DD
:10315000FF90EF90DF90CF90BF90AF900C94D3177B
:10316000823019F41091D107C1CF863019F4009143
:10317000CF07BCCF8930D9F3883109F0B7CFE8EE5B
:10318000E20F2170D22EE695F0E0E652F54FA590C1
:10319000B490E12CBB2460911101E61618F00E9456
:1031A000BD10A4CF2E2D30E0EA9CC001EB9C900D09
:1031B000112470E00E949E33802FD11016C0860F1C
:1031C00090910F01A901490F511D9A01220F331F40
:1031D000240F351F2D543D4F412F173908F046E974
:1031E0006F2D0E94E40BE394D6CF861BE9CF279680
:1031F0000FB6F894DEBF0FBECDBFDF91CF911F9108
:103200000F91FF90EF90DF90CF90BF90AF90089517
:10321000EEECF7E0818121E043816281885F0C94CC
:103220004218EEECF7E0818121E043816281885011
:103230000C944218EEECF7E0628128E0620F08F48B
:103240006FEF21E0438181810C944218EEECF7E0AE
:10325000628128E0621B08F460E021E04381818103
:103260000C944218EEECF7E0438128E0420F08F49A
:103270004FEF21E0628181810C944218EEECF7E07F
:10328000438128E0421B08F440E021E06281818113
:103290000C94421869EE7EEF90E080E00E944B347F
:1032A00060E082E090E00E942D3460E083E090E0F6
:1032B0000E942D341092D40760E084E090E00E94D8
:1032C0002D3460E082E290E00E942D3460E085E0E1
:1032D00090E00E942D3460E086E090E00E942D3462
:1032E0006FEF87E090E00E942D3440E050E0BA019B
:1032F00088E090E00E943F3460E08DE090E00E9422
:103300002D3440E050E0BA0188E190E00E943F3463
:1033100060E087E190E00E942D3440E050E0BA0187
:103320008CE190E00E943F3470E060E080E290E049
:103330000E944B3440E050E0BA0188E190E00E94E6
:103340003F3480E00E949C170E94C41740E050E088
:10335000BA018FE090E00E943F3440E050E0BA01B3
:1033600083E190E00C943F3490E080E00E942734A9
:10337000893E9E4F11F40C946F1380E00895CF9214
:10338000DF92EF92FF920F931F93CF93DF93FA0197
:1033900069017801C82F880FDD0B3097B9F08AE0FA
:1033A0008C9FD0018D9FB00D1124A85DBE4F139648
:1033B0008D919C9114978359984F12964C9150E09F
:1033C000E417F50708F4AF010E941034CE010E9403
:1033D000EA32892B11F5E114F104E9F08AE08C9FBF
:1033E000F0018D9FF00D1124E85DFE4F458150E006
:1033F000E416F50608F4A7018AE08C9FF0018D9F82
:10340000F00D1124E85DFE4F668177816359784F96
:10341000C6010E94103481E001C080E0DF91CF91AD
:103420001F910F91FF90EF90DF90CF9008950F9331
:103430001F93CF93DF93CDB7DEB728970FB6F894DD
:10344000DEBF0FBECDBF4091580750915907609124
:103450005A0770915B072FB7F89480916907909194
:103460006A07A0916B07B0916C072FBF841B950B67
:10347000A60BB70B11E084369105A105B10520F12B
:103480000E943710DC01CB010296A11DB11D89837A
:103490009A83AB83BC8310E000E030E020E044E09E
:1034A00050E0BE016F5F7F4F84E00E94BF19182F6C
:1034B000882351F00E94FA0D6093580770935907C2
:1034C00080935A0790935B07812F28960FB6F89444
:1034D000DEBF0FBECDBFDF91CF911F910F91089539
:1034E0006F927F928F929F92AF92BF92CF92DF9214
:1034F000EF92FF920F931F93CF93DF930F92CDB76D
:10350000DEB7662E4A01722EA32EB02EC12E01E028
:1035100010E09E012F5F3F4F50E040E070E060E020
:103520000E94BF19D82E882309F44FC0D4014D91B1
:103530005D916D917C912FB7F8948091690790917E
:103540006A07A0916B07B0916C072FBF841B950B86
:10355000A60BB70B84369105A105B10540F4B70160
:103560008B2D9C2D0E94A70C9981891771F18701E1
:10357000272D3A2D50E040E070E060E0862D0E945B
:10358000BF19D82EB7018B2D9C2D0E94A70C91E05E
:103590002981281390E0D92239F00E94FA0DF40114
:1035A00060837183828393838D2D0F90DF91CF9100
:1035B0001F910F91FF90EF90DF90CF90BF90AF9051
:1035C0009F908F907F906F900895A7016B2D7C2D19
:1035D000872D9A2D0E941034E7CFCF92DF92EF9281
:1035E000FF920F931F93CF93DF9300D000D0CDB7FE
:1035F000DEB76B0184E0E82EF12C0EE617E09E01A9
:103600002F5F3F4F45E657E061E080E00E94701A6F
:10361000882361F049815A816B817C8140936107E5
:10362000509362076093630770936407409161074A
:10363000509162076091630770916407F6014083BF
:103640005183628373830F900F900F900F90DF91DF
:10365000CF911F910F91FF90EF90DF90CF90089541
:103660008F929F92AF92BF92EF92FF920F931F9310
:10367000CF937B01942FB901A801D7018D909D9024
:10368000AD90BC90EFB7F8940091690710916A076C
:1036900020916B0730916C07EFBF081919092A09AF
:1036A0003B09043611052105310518F4C1E09923C1
:1036B00081F010E000E030E020E00E94BF19C82F48
:1036C000882339F00E94FA0DF701608371838283A9
:1036D00093838C2FCF911F910F91FF90EF90BF900C
:1036E000AF909F908F9008950F931F93CF93DF9388
:1036F000CDB7DEB728970FB6F894DEBF0FBECDBFAB
:1037000025E0EEECF7E0CE010196DC0101900D9290
:103710002A95E1F73091CB072091CC075091CD0746
:103720003E832F83588741E09C01511101C040E046
:1037300008E010E064E577E085E00E94301B81112D
:103740001092CD0728960FB6F894DEBF0FBECDBFFE
:10375000DF91CF911F910F9108950F931F93CF93F6
:10376000DF930F92CDB7DEB780914F078983209109
:10377000800790E041E02817190609F440E001E0D5
:1037800010E09E012F5F3F4F60E577E086E00E94EA
:10379000301B0F90DF91CF911F910F910895CF9221
:1037A000DF92EF92FF920F931F93CF93DF936C0101
:1037B0007B0164E670E088E70E947130EC018601CD
:1037C000EC0CFD1C97FD0EC0F801849164E670E0DE
:1037D0000E94EA30EC01892B29F40F5F1F4FE0169D
:1037E000F10691F70E947731CE01DF91CF911F91C1
:1037F0000F91FF90EF90DF90CF900895CF93DF93DC
:1038000000D000D00F92CDB7DEB780914F078D83E7
:10381000809144078823F1F00E94FA0DDC01CB016E
:10382000805A9541AF4FBF4F80933E0790933F071B
:10383000A0934007B09341078D81811108C062E0D9
:1038400070E088ED99E00E94CF1B892B61F0809198
:103850004F078D838D810F900F900F900F900F90D9
:10386000DF91CF91089581E080934F07F0CF809151
:103870004F0790914407911103C091E08927089563
:10388000882369F062E070E086ED99E00E94CF1B2A
:10389000892B19F080914F07089510924F0780915E
:1038A0004F07EBCFCF93DF93682F8091F702909172
:1038B000F8026A30B9F42091F9028A539340622FDA
:1038C00070E00E949E33281B822F66E00E94B23374
:1038D000C82FC15018F4DF91CF91089580E20E9463
:1038E000521CF7CF6D30F9F49C012A5333404091BC
:1038F000F902642F70E0C9010E949E33481B842F97
:10390000A901480F511D4115544018F080E030E0E6
:1039100020E0820F932F911D865C9C4F9093F802BC
:103920008093F702D8CF26E0FC01A7E7B2E0019030
:103930000D922A95E1F7603E08F458C026E0FC019C
:1039400011922A95E9F7C091F702D091F80246E06A
:1039500050E0BE0187E792E00E9403349E012A53A3
:103960003340892B41F1C90146E0969587954A95E8
:10397000E1F741E050E0BA0102C0660F771F8A9577
:10398000E2F7CB0160913C0770913D07862B972BA6
:10399000B9016B5F7F4FE6E076956795EA95E1F7B1
:1039A00002C0440F551F6A95E2F7842B952B909324
:1039B0003D0780933C072A5F3F4F4091F902642FF7
:1039C00070E0C9010E949E33481B463010F4240F5A
:1039D000311D211574E0370710F030E020E0265C3F
:1039E0003C4F3093F8022093F70275CFF6E06F9FBB
:1039F000B001112465587E4F46E050E00E94ED333F
:103A0000A2CFCF93DF93EC01FE018491811103C01B
:103A1000DF91CF9108950E94521C2196F5CF1F92FD
:103A20001FB61F9211248F939F93AF93BF938091E2
:103A3000F002811113C08091690790916A07A091EB
:103A40006B07B0916C074196A11DB11D809369076A
:103A500090936A07A0936B07B0936C07BF91AF91E7
:103A60009F918F911F901FBE1F9018952FB7F894AC
:103A70008091690790916A07A0916B07B0916C07DC
:103A80002FBF08950E94141081110C94361D0E94BE
:103A90003710CB0108956091CE07669570E04BE03A
:103AA00050E082E091E00E94F633892B19F481E026
:103AB0008093CC070E94421D9093930780939207B6
:103AC0008091CD0784608093CD070895CF93DF93D5
:103AD00000D000D0CDB7DEB79091CE0790FF4CC09C
:103AE000882309F442C0823208F041C08F77880FE2
:103AF0009091CE079170892B8093CE078091CD074E
:103B000081608093CD07662381F08091CE079091EC
:103B1000CF07A091D007B091D10789839A83AB8357
:103B2000BC83BC01CD010E94D3176091CE0766957E
:103B300070E04BE050E082E091E00E94F633892B88
:103B4000C1F00E949B0C81E08093950720E040919A
:103B5000D1076091D0078091CF070F900F900F9001
:103B60000F90DF91CF910C94421881E0C0CF81E299
:103B7000BECF0E944B1DE7CF0F900F900F900F907C
:103B8000DF91CF9108958091CE0786958F5F823225
:103B900008F081E061E00C94661D9091CE07969547
:103BA0008FEF890F913009F481E261E00C94661D7A
:103BB0009091CE0790FF07C09695981720F0961722
:103BC00010F40C94C31D61E00C94661D3F924F925B
:103BD0005F926F927F928F929F92AF92BF92CF929D
:103BE000DF92EF92FF920F931F93CF93DF93CDB7A6
:103BF000DEB728970FB6F894DEBF0FBECDBF7C01AD
:103C0000DC019C9111968C91119713962D913C910A
:103C1000232B21F089238F3F09F085C428960FB606
:103C2000F894DEBF0FBECDBFDF91CF911F910F91F2
:103C3000FF90EF90DF90CF90BF90AF909F908F90CC
:103C40007F906F905F904F903F9008959801225120
:103C50003F452031310508F042C48FEF93E00E94C8
:103C60001934025137EA832E32E0932E8823A1F1D2
:103C70008091D607877091F2D70112968C91882394
:103C800069F28091D80782FDC9CF82E028960FB6ED
:103C9000F894DEBF0FBECDBFDF91CF911F910F9182
:103CA000FF90EF90DF90CF90BF90AF909F908F905C
:103CB0007F906F905F904F903F900C943E0D8114D9
:103CC000B4E09B06A9F2C4010E941934811101C01D
:103CD0000150EFEF8E1A9E0A0111F1CF80917F0102
:103CE00090918001A0918101B091820189839A8392
:103CF000AB83BC83442443942AE0322E84010F5FBB
:103D00001F4FC4010E94193489831A82882309F441
:103D1000AFCF9FEF980F933010F58A834982F2E07E
:103D20008F0E911CC8010E9419348B83882309F4DB
:103D30009FCF8E010F5F1F4FD8012C912223F1F2EC
:103D400011969C911197213009F045C012968C91E3
:103D5000913039F40E5F1F4F0E94F50F08C04801E3
:103D6000E8CF923039F40E5F1F4F0E94900D0F5F25
:103D70001F4FE2CF933029F40E5F1F4F0E94E90CD2
:103D8000F6CF943019F00F5F1F4FF1CF0E5F1F4F2A
:103D900020E030E0B8016F5F7F4FF8014181805330
:103DA000990B8A30910560F02115310501F38FE9F7
:103DB0009FE00197F1F700C0000021503109F4CFD6
:103DC000329EF001339EF00D11249C012E0F3F1FF7
:103DD000842F8B01DFCFE22FF0E0E151FF4E5490B2
:103DE000822F86958695869590E0FC01E152FF4EE4
:103DF000E4912770F0E0022E02C0F595E7950A9451
:103E0000E2F73F01A1E06A227724FC01E153FF4E73
:103E1000A490B12C022E02C0B594A7940A94E2F7A4
:103E2000B1E0AB22BB24FC01E154FF4EC490D12C85
:103E300002C0D594C7942A95E2F7E1E0CE22DD24B2
:103E40006114710419F081EE0E94900DA114B10467
:103E500019F086EE0E94900D852D0E94F50FAB287B
:103E600019F086EE0E94E90C672819F081EE0E9495
:103E7000E90CCD2809F47BCF8CE26ECF81E00E9463
:103E8000270D0E94140FF4CE81E00E94320DF9CF6D
:103E900082E0F5CF8091CA07811104C089E20E94B7
:103EA00071093EC385E3FBCF9111FAC08091DA0717
:103EB0008272063D2CE5120778F4023C3CE51307BC
:103EC00078F0F801E35CFC45E331F10508F06BC0E4
:103ED000E359FB4C0C94E0330D351D4509F4C8CE75
:103EE000F7018281C080D180882309F40EC1C60108
:103EF0000E94BC13182F682FC6010E941109B60139
:103F0000812F0E94AF130E94450A8C01D70112969F
:103F1000BC9012971596AC90A2949FE0A922809134
:103F2000D6078770C1F0CB2CBB20B1F0812F807FEA
:103F3000803421F080E2800F883068F08091D807CB
:103F400082FD09C082E00E943E0D8091D6078770F5
:103F5000CC24C3948111C12CD12ED2948FE0D822CD
:103F6000B8E0DB1609F4D2C1BD1508F410C1E3E0D6
:103F7000ED1508F4CFC0812F807F1F70F1E0FD1593
:103F800008F019C1803211F01295107F002309F456
:103F900048C1013009F482C1BB2009F48CC1AA20B8
:103FA00009F482C11DC18091CE0780FF26C08E7F9B
:103FB0008093CE078091CE079091CF07A091D00734
:103FC000B091D1078D839E83AF83B887BC01CD01AB
:103FD0000E94D3170E949B0C8091CD078160809333
:103FE000CD079FEFA0E7B2E09150A040B040E1F7CD
:103FF00000C000000E94BD103BCE81608093CE07C0
:1040000061E086950E94661D33CE4DEC5DE163EC68
:104010007DE10E94A20C2CCE43EC5DE16DEC7DE1D4
:10402000F8CF41E159E168E079E1F3CF48E059E1A7
:1040300061E179E1EECF46E259E16AE179E1E9CF68
:104040004AE159E166E279E1E4CF4EE359E162E306
:1040500079E1DFCF42E359E16EE379E1DACF4FE175
:1040600058E16CEF77E1D5CF4CEF57E16FE178E1A4
:10407000D0CF61E081E0C6CF65E082E00E94D81D2C
:10408000F7CD68E086E0FACF6EE089E0F7CF64E133
:104090008FE0F4CF67E185E1F1CF61E288E1EECF17
:1040A0000A35EDE51E0769F158F401152CE51207F4
:1040B000C9F00E3D1C4509F013CF0E944A19D8CD16
:1040C0000B358DE51807F9F00C351D4509F008CFC3
:1040D0008091D80782FB882780F991E089270E9488
:1040E0001E17FECE1092DA070E944514AFEFB4E31C
:1040F000ECE0A150B040E040E1F700C000000E94B9
:10410000D61281E0ECCF80E0EACFC6010E943E09E2
:10411000182FF5CE24E0D21609F4DEC0AD2DA8503C
:10412000BB0B149710F40E946810CC20A9F080916A
:10413000D60780FD11C0F70112828595859585957A
:104140000E94270DC7010E94E61D8091D607859524
:10415000859585950E94320D60E0C70128960FB6BF
:10416000F894DEBF0FBECDBFDF91CF911F910F91AD
:10417000FF90EF90DF90CF90BF90AF909F908F9087
:104180007F906F905F904F903F900C94EB1339E0CD
:10419000D31609F42BC186E08D0D8F70823008F0A4
:1041A000BDCF023F09F031C1812F8F71B1102AC1FB
:1041B0000E94270DB3CF882311F01295107FBB20EA
:1041C000B9F0112369F080E2800F883010F00111FE
:1041D00009C08091DA07812B8093DA070E94AC092D
:1041E000802F2FC08091D907812B8093D907F6CFDC
:1041F000802F0E94E90C112309F490CF80E2800FF8
:10420000883010F0011104C0812F0E949E0906C061
:1042100010958091D90781238093D9070E94AC091A
:104220007DCF2091D80722FF16C0BB2069F0112353
:1042300039F08091DA07812B8093DA070E94AC096C
:1042400080E00E94900D6ACF80E00E94E90C11236B
:1042500009F464CFD9CFBB20A1F09091D307812F6F
:10426000892BA11003C00E94F10958CFA1E0AA1226
:10427000FACF22FD53CF981709F450CF8093D3077C
:104280004DCFA11006C00E94A609812F0E94FB09F4
:1042900045CFB1E0AB1609F441CFF5CFBB2031F0EB
:1042A000E5E0EA1508F43ACF812FDDCFF4E0FA1506
:1042B00008F434CFEACFAA2041F3093349F42FEFB1
:1042C00037EE83E0215030408040E1F700C000002D
:1042D000802F0E94E90C22CF812F869586958370CE
:1042E00061F0813009F01ACFC8019370B11002C09B
:1042F00090E080E00E94D30C11CFC8019370B11000
:1043000002C090E080E00E94BD0C08CF812F837036
:10431000A1F5B11003CF802F829586958770880F05
:10432000880F402F4F70082E01C0440F0A94EAF7FF
:10433000202F207104FF07C02FE030E001C0220FC2
:104340008A95EAF72095169516951370123081F02C
:10435000822F842B133031F08091D407113029F053
:10436000242B82230E941F0DD9CE842B822BFACFBF
:10437000242B8091D4078227F5CFBB2061F110FF59
:10438000CDCE802F829586958770880F880F402F1D
:104390004F70082E01C0440F0A94EAF7202F2071B5
:1043A00004FF07C02FE030E001C0220F8A95EAF732
:1043B0002095169516951370123099F0822F842B44
:1043C000133031F08091D507113041F0242B822336
:1043D0000E94230DA3CE11FFA1CED3CF842B822B1D
:1043E000F7CF242B8091D5078227F2CF1F70BB20F7
:1043F00029F0812F0E94270D802F35CF802F0E941A
:10440000FB09812F0E94320D89CE033F60F4003FEB
:10441000B9F0013F81F0BB2009F451C0A110E0CEFA
:10442000812F8F71C5CE033F09F1043FA1F7809121
:10443000D80782FF26C0812F8F71BB2019F3B8CE19
:10444000BB2079F094E09A1508F468CE1F7181E0E2
:1044500090E001C0880F1A95EAF79091D507892757
:10446000B7CFA5E0AA1508F459CEF0CF80E0BB2065
:1044700009F4AECF1F7181E001C0880F1A95EAF7E9
:10448000A7CFBB2089F01F71812F0E94270D80913B
:10449000D80782FD07C0B8E01B9FC00111248360CC
:1044A0008093D607812F84CE81E00E943E0DE1E00B
:1044B000EA1508F033CE82E00E943E0D2FCEAA20EE
:1044C00059F0093309F004CFFFEF27EE33E0F15044
:1044D00020403040E1F7FACE812F8F7193CF003129
:1044E000FFE51F0709F4CACC01312FE5120709F4D3
:1044F000CFCC0631FCE51F0709F0D6CC8091DA0756
:10450000992309F4C7CC8A7A91E009F490E090935A
:10451000CA0769E2811165E387E592E00E945A0DBE
:104520000E94AC09A5CB61E0C7010E94EB138C018E
:10453000D70112969C91911189CB00313FE5130769
:1045400009F4A2CC01318FE5180799F682E09DCCE1
:104550001F93CF93DF9380911208807FA9F48091FD
:104560000F08882389F08091DC07C091DB077091E8
:104570000D0860910E08A0911008B0911108D62F77
:10458000D72316E0C81304C0DF91CF911F9108957F
:1045900090E0109711F0DF3F19F401968770F2CF89
:1045A000189F9001199F300D1124F901E352F84F23
:1045B00041816413F2CF40814713EFCF4281411113
:1045C000ECCF438154814A1B5B0B483C510528F7D3
:1045D000809112088F70806180931208F901EE516A
:1045E000F84F80818F70806180838DE098E00E9419
:1045F000E61DDF91CF911F910C9467098F929F92D6
:10460000AF92BF92DF92EF92FF920F931F93CF93DF
:10461000DF93CDB7DEB72B970FB6F894DEBF0FBE92
:10462000CDBF8C0185E0F801DE01179601900D9257
:104630008A95E1F7F801E280A380B4808DE0882EAE
:1046400088E0982E90910D0880910E082091100816
:10465000309111082115310529F0482F49234F3F8A
:1046600009F028C1EE2009F433C1F801808191815D
:104670000E941814F82E882309F42AC186E0F80154
:10468000ADE0B8E001900D928A95E1F70E94A82272
:1046900021C0D09012084D2D407F283C310508F0F4
:1046A000A8C0F80121814111C3C0FE2C281325C0E8
:1046B0008081891322C0E11020C08D2D8F70806110
:1046C000809312088DE098E00E94E61D8091120808
:1046D000F80185838F2D2B960FB6F894DEBF0FBEA1
:1046E000CDBFDF91CF911F910F91FF90EF90DF90A1
:1046F000BF90AF909F908F9008953F81AB2829F095
:10470000822F83238F3F09F090C080E0F82FF17053
:10471000DF2EE091DC074091DB0756E080FD1CC0F6
:10472000EE20C1F280911208816080931208F12C72
:10473000D1CF8E2F90E05E9FF0011124E352F84F0D
:104740006181261306C06081361303C06281E612C0
:10475000E7CF0196E82FE770E413EBCF8F819885C0
:104760000E940A14292F22952F70903260F0225F48
:104770002F70223078F49F7051F0F8019581907F6E
:1047800031F4D12C0AC09F7011F08823D1F3805EE0
:104790008830B8F3C8010E94E61DFD2C9BCFF801BC
:1047A000808191810E941814882309F491C0EE2021
:1047B00009F48EC080911208803270F080910D084B
:1047C00090910E089A8389831B82BD82AC82DE821F
:1047D000CE0101960E94E61D86E0F801ADE0B8E04A
:1047E00001900D928A95E1F70E94A822FF24F3948C
:1047F00071CF411132C08DE098E00E94E61D86E045
:10480000F40111928A95E9F792CFF80180819181A4
:104810000E9418148111E0CF80911208816080936A
:104820001208C8010E94E61D55CF81E08E256ECF8B
:104830002813B5CFF80180818913B1CFE110AFCF34
:10484000D582C8010E94E61D86E0F801ADE0B8E01F
:1048500001900D928A95E1F73DCFF80121818213F5
:104860009ECFF801808189139ACFE11098CFD5822D
:10487000C8010E94E61D86E0F40111928A95E9F7CD
:1048800029CFF80121818213C0CFF80180818913DB
:10489000BCCF8091120880FDD7CF982F907FA1F2D6
:1048A0008583903F71F2982F907F905F8F70892B56
:1048B0008583C7CFF0900F08A501421B530B9A01C7
:1048C000F110E7CE283C3105B0F6FE2CE110D9CF2F
:1048D000C8010E94E61D8ACF1F93CF93DF93CDB707
:1048E000DEB767970FB6F894DEBF0FBECDBF342F8B
:1048F0004B8B252F5C8B962F6D8B7E8B8F8B4E89F0
:104900005F8961111092D9071A8A3D872E879F8788
:10491000598B488B86E0FE013D96DE01179601908B
:104920000D928A95E1F7CE0107960E94FE22882318
:1049300089F016E08091DC079091DB0789134BC06A
:1049400067960FB6F894DEBF0FBECDBFDF91CF9153
:104950001F91089586E0FE013796DE0111960190C1
:104960000D928A95E1F79F8188852091DB07409120
:10497000DC076A857B85672BE1F289238F3FC9F2CB
:1049800030E0C9010196877099274817190681F40C
:104990001092DA070E9445141092DB071092DC0790
:1049A00086E0EDE0F8E0DF011D928A95E9F7C1CFDE
:1049B00096E0929FD001939FB00D1124A352B84F5F
:1049C000FE01319601900D929A95E1F78093DB07F5
:1049D0000E946709AECF819FC00111248352984F76
:1049E0000E94FE22882309F4ABCF8091DC0790E07F
:1049F0000196877099278093DC079CCFEF92FF92F6
:104A00000F931F93CF93DF9300D000D00F92CDB7B9
:104A1000DEB7162FE82EF12CC701880F991F6623E9
:104A200029F1815E9D4FFC01808191819A83898368
:104A300001E00B830E94361D8160782FF701E75754
:104A4000F84F0127110F102B108349815A816B8178
:104A5000892F0F900F900F900F900F90DF91CF91B3
:104A60001F910F91FF90EF900C946C24855E9D4FE9
:104A7000DACFCF92DF92EF92FF920F931F93CF93F3
:104A8000DF930F92CDB7DEB7EE24E394F12C03E76A
:104A900017E09E012F5F3F4F4DE557E063E082E056
:104AA0000E94701A082F882321F1C0905C078C2D7A
:104AB00090E09C012557384F79011981F9018081D7
:104AC000181BD12E80E00AC0DA94F70180818F5F35
:104AD000808360E08C2D0E94FE24802F1D14A4F39F
:104AE000912F17FD90E0191B11110EC081110E942A
:104AF0001A0E802F0F90DF91CF911F910F91FF9091
:104B0000EF90DF90CF9008951F5FF7018081815073
:104B1000808361E08C2D0E94FE24802FE5CF9C01D4
:104B20004FB7F8948091690790916A07A0916B073D
:104B3000B0916C074FBF821B930B08955F926F92E9
:104B40007F928F929F92AF92BF92CF92DF92EF921D
:104B5000FF920F931F93CF93DF93CDB7DEB7659787
:104B60000FB6F894DEBF0FBECDBF1A821982FE01C8
:104B7000339686E0DF011D928A95E9F79EE6C92EFD
:104B800091E0D92E8E010F5F1F4F22E7E22E21E028
:104B9000F22E3801AA24A394B12C4EE7842E41E0D2
:104BA000942EF60181916F018F3F09F440C0F89473
:104BB000E82FE295EF70F0E021A18F70A50102C00F
:104BC000440F551F8A95E2F7CA01922F982B91A3A3
:104BD00092A18095892382A3789400C0E6E7F1E052
:104BE00031E0512C21912F3F09F476C0A22FA295DC
:104BF000AF70A05EB0E08C9190E02F7002C09595F0
:104C000087952A95E2F780FD67C0832F582A330FD6
:104C10008E169F0639F7F601319780818F3F11F08C
:104C20000E94CA0B50EA5A95F1F7D8015C920F5FC7
:104C30001F4FEC14FD0409F0B4CF48E050E0B3017D
:104C400083EA97E00E9403348C01892B41F088E0CD
:104C5000F301A3EAB7E001900D928A95E1F7F09095
:104C6000A20701151105D1F181E0809385070E940B
:104C7000361D9093840780938307809183079091DA
:104C800084070E948F25059768F0AF2DB0E0A656E7
:104C9000B84F84E0E3EAF7E001900D928A95E1F7DE
:104CA0001092850781E090E0012BE1F065960FB648
:104CB000F894DEBF0FBECDBFDF91CF911F910F9152
:104CC000FF90EF90DF90CF90BF90AF909F908F902C
:104CD0007F906F905F90089580E098CF80918507D6
:104CE0008111CBCF0E941410F82EE091A2078823E7
:104CF00009F4C3C01F861E86198A188A0E2F10E079
:104D00000656184F809186078A3008F07DC06E01E4
:104D1000BEE0CB0ED11C2DEE3AE14BE851E0B601DE
:104D2000C8010E947810BC2CED2C882309F491C096
:104D300029E335E248E951E0B601C8010E94781044
:104D4000882309F486C027E13AE140EA51E0B60140
:104D5000C8010E947810882309F47BC024E73BE156
:104D60004BEA51E0B601C8010E947810882309F48B
:104D700070C02DEA3BE144EB51E0B601C8010E944E
:104D80007810882309F465C01092860780919907EE
:104D900090E044E050E06B2D7E2D8656984F0E94A7
:104DA000033421E020939807892B09F044C0F12CAB
:104DB00089E8C82E87E0D82E10E000E0F601819146
:104DC0006F018823D1F08695F80109F453C0E15EA4
:104DD000FD4F808191819A8789871B860E94361DAD
:104DE0008160782F9D878C87F601319710824985E5
:104DF0005A856B85892F0E946C240E5F1F4F0430EB
:104E00001105E1F68F2D52CF809187079091880789
:104E10000E948F25843F914008F079CF80919807B8
:104E2000882329F2FE013E9684E0DF011D928A95D7
:104E3000E9F710929807E0919907F0E0E656F84FED
:104E40008E859F85A889B98980839183A283B38346
:104E5000AFCF809186078F3F31F08F5F80938607B9
:104E60008A3008F493CF0E94361D90938807809370
:104E70008707D4CFE55EFD4FACCFF0E0E656F84FA4
:104E8000F89480819181A281B38180936E07909381
:104E90006F07A0937007B093710764E070E08EE62F
:104EA00097E00E94A70C80936D077894F894E091A6
:104EB0008D07F0E0E557F84F80818987809373076D
:104EC00061E070E0CE0109960E94A70C8093720702
:104ED0007894F894C0907407D0907507E0907607A6
:104EE000F090770780918E0790918F07A09190079F
:104EF000B0919107C816D906EA06FB06F1F0C092F8
:104F00008E07D0928F07E0929007F09291070E944F
:104F10001410811112C00E94FA0D6A8B7B8B8C8B4E
:104F20009D8BC61AD70AE80AF90AC092AB07D0923D
:104F3000AC07E092AD07F092AE077894F8948091B8
:104F40007F07882379F180FF0DC08091780780FF6B
:104F500034C09091CE0791609093CE0760E0869523
:104F60000E94661D80917F0781FF09C020E040916B
:104F70007B0760917A07809179070E94421880919F
:104F80007F0782FF06C080917E078823C9F00E94B8
:104F90004B1D80917F0783FF03C081E080939507BD
:104FA00010927F077894F89480918007882359F0B5
:104FB0000E94FE1B789480E079CE0E946012D2CFCE
:104FC0000E949B0CE6CF0E94371CF4CFCDB7DEB712
:104FD000E2970FB6F894DEBF0FBECDBF84B7877FD0
:104FE00084BF0FB6F894A895809160008861809383
:104FF0006000109260000FBE80E890E00FB6F89459
:1050000080936100909361000FBE85B7806885BF73
:1050100085B7806885BF88EC9BE0909355028093AC
:1050200054020E94CB0E0E94940F8091E200846093
:105030008093E200789480918107882399F0809191
:10504000E9001091EC001795112717958F70182B18
:105050001092E9008091E80083FD0E9458141F70AF
:105060001093E90082E084BD93E095BD9AEF97BD6F
:1050700080936E001092AB071092AC071092AD07B0
:105080001092AE070E946F13811102C00E94C417D4
:1050900023982B9A6E9A769825E02A95F1F70000CE
:1050A00083B183FB882780F96E98769A30EA3A9527
:1050B000F1F78093120180911201882309F49CC1B9
:1050C00080E080930D018AE080930E010E9414100D
:1050D00081110E94DC318091120181112AC085E08A
:1050E000E3E8F1E0DE01919601900D928A95E1F7F7
:1050F000FE01B69683E0DF011D928A95E9F788E00C
:105100003597AEE6B1E001900D928A95E1F788E01F
:10511000E9EBF1E0DE01119601900D928A95E1F73D
:1051200088E0FE013196A6E7B1E001900D928A95E4
:10513000E1F78091120191E08927880F880F809311
:10514000A20794E0981B909399070EE611E052E7AE
:10515000E52E51E0F52EF80181918F018F3F11F07E
:105160000E94CA0BE016F106B1F706E711E04EE720
:10517000E42E41E0F42ED8018D918D018F3F11F086
:105180000E94CA0BE016F106B1F788E0EAE9F7E001
:10519000DF01282F1D922A95E9F7E3EAF7E0DF0106
:1051A0001D928A95E9F70E94B419811102C00E94EC
:1051B0004A1982E090E00E9419348093460784E007
:1051C00090E00E941934182F82E290E00E94193476
:1051D000982F812F9093D8078093D7070E949E2500
:1051E000EFE3FCE93197F1F700C000000E949E2533
:1051F00083E090E00E9419340E941F0D0E94141059
:10520000811102C00E94DF3182E080933A0780E87A
:105210008093F9020E946B306DE070E082EF9BE0BA
:105220000E94CF1B892B09F043C080913A0763E0AD
:1052300070E081FDE3C08FEE9BE00E94CF1B892BC5
:10524000B9F56DE070E08FED9BE00E94CF1B892BDC
:1052500079F50E94FA0D69A77AA78BA79CA7DC01B4
:10526000CB01805A9541AF4FBF4F80933E0790933B
:105270003F07A0934007B0934107EAE3F3E080E0E3
:1052800094E0DF019C011D9221503040E1F7F09342
:10529000F802E093F7028FEF9FEF90933D07809322
:1052A0003C0781E08093440780934F0710923B07AF
:1052B0008091EF02811138C00E94B419811104C09D
:1052C0000E944A190E94E71788E090E00E9421346A
:1052D0006093CE077093CF078093D0079093D10748
:1052E0008091CD0783608093CD076E7F71F40E941B
:1052F000E71788E090E00E9421346093CE07709316
:10530000CF078093D0079093D1070E94850C0E940D
:105310009B0C8091CE0780FF04C060E086950E94C0
:10532000661D81E08093EF0280911201811106C019
:1053300085EF8093200184EF80931F01409120012D
:10534000A42FA295AF70B0E091963C9191974F70C9
:1053500081E090E0BC01042E01C0660F0A94EAF7D8
:10536000262F2095232391962C93919792962C91FA
:105370009297262B92962C93929730911F01E32FB0
:10538000E295EF70F0E021A13F70032E01C0880F7D
:105390000A94EAF7982F9095922391A392A1892BD2
:1053A00082A390962C9180A190E002C0959587955C
:1053B0003A95E2F78170880F30E002C03595279565
:1053C0004A95E2F72170822B8093F60290911201A8
:1053D00081E0982790938D07891B80935C0783E178
:1053E00091E09093B0078093AF0780E4B82E92EAE3
:1053F000292E97E0392E28C28AE063CE8CEE9BE0FE
:105400001CCF80918107843029F10E94371C1092B3
:10541000F00248E150E00FB6F894A8954093600080
:105420000FBEB092600083B7817F846083BF83B773
:10543000816083BF7894889583B78E7F83BF0FB6D2
:10544000F894A89580916000886180936000109224
:1054500060000FBE8091F102882371F00E949E25AA
:10546000EAE9F7E0A3E1B2E081919D91892309F097
:10547000CCC42E163F06C1F780918107853009F410
:10548000C0CF1092DA070E9445140E946810E3C151
:10549000D394EE0CF8E0DF1202C20F5F1F4F08300A
:1054A000110509F0ECC18FEF89838A831B820E946A
:1054B000361D8160782F9D838C8349815A816B8151
:1054C000892F0E946C240CC2863059F4F0E0E85F0A
:1054D000F34FE4910E2F10E096ECE92E92E1F92EB5
:1054E00019C2893061F4E695F0E0EB5FF34FE49187
:1054F0000E2F10E080E9E82E81E1F82E0BC28F30EC
:1055000061F4E695F0E0EE5FF34FE4910E2F10E0CA
:10551000BEECEB2EB1E1FB2EFDC100ED17E0F3EE8A
:10552000EF2EFBE0FF2E853109F0F4C1F0E0E150F1
:10553000F44FE4910E2F10E0A8E0EA2EA1E1FA2E3C
:10554000E9C10E94361D90934307809342078AE386
:1055500093E09093F8028093F7020E94141088233E
:1055600009F44EC08FE790E10E94011D89E690E1A9
:105570000E94011D81E690E10E94011D9091D507D6
:105580008091D407892B0E940109823081F138F47F
:1055900081112AC08BE590E10E94011D04C0833077
:1055A00049F1843051F10E946810182F8FE290E188
:1055B00010FF02C087E390E10E94011D8FE190E19E
:1055C00011FF02C087E290E10E94011D8FE090E18F
:1055D00012FF02C087E190E10E94011D8091440703
:1055E000882309F463C25AC286E590E1D5CF81E5EC
:1055F00090E1D2CF87E490E1CFCF8FE390E1CCCFA1
:105600008FE09CE00E941F0FE9CF80913B0761E093
:1056100070E081114BC2082F10E07B01082E02C000
:10562000EE0CFF1C0A94E2F7A9014E215F21452BE5
:1056300009F449C020913A07922F917020FD45C08E
:105640009801369527958295880F880F80743FE3DF
:10565000380F8093230120932601309324019093E7
:10566000270124E630E047E050E061E271E088E79E
:105670000E941931892B09F019C2A80176E0440F64
:10568000551F7A95E1F780913A0780FD26C0465C68
:105690005C4F04E610E020E430E060E488E70E941C
:1056A0004631892B09F002C20E94FE1BE094F0945F
:1056B00080913C0790913D07E822F922F0923D0746
:1056C000E0923C07F3C18F5FA6CF880F880F880F49
:1056D00037E0380F20E097E0BCCFEAEFF2E0DF01DF
:1056E0002B2D1D922A95E9F78BE092E09AAB89ABBE
:1056F00003E012E0A9A9BAA96D91BAABA9ABF80170
:1057000081918F01840F952F911D9C01265C3C4F48
:105710003EA72DA7E62FF0E0E650FD4F30E020E059
:1057200067E0662E621AAA24A394022E01C0AA0C76
:105730000A94EAF78DA49EA480E0D4019D914D01C6
:105740009A21662D681B6770762E062E000C770B4B
:10575000B92F01C0BB0F7A94EAF771956195710971
:105760006770772701C096956A95EAF79B2B608151
:10577000962B90838F5F883001F72F5F3F4F3196D4
:105780002830310569F6E3E1F2E029A93AA9E217E8
:10579000F30709F0AFCF04E610E020E430E04AEF71
:1057A00052E07BCF8091F100D8018D938D01B1E063
:1057B000EB1AF10809F4C8C18091E80085FDF2CF29
:1057C0008091E8008B778093E8000E949A0E8823EE
:1057D00099F3BAC11A8289E08B8312C08A81823020
:1057E00009F42BC3833009F4C1C1813009F0E2C14F
:1057F0000E94FA0D0E94E6336B837C838D839E8327
:1058000080918107843001F58091E9001091EC00CE
:105810001795112717958F70182B82E08093E90058
:105820008091E80080FF0DC050E040E060E270E051
:10583000CE0101960E94EA0E8091E8008E77809357
:10584000E8001F701093E9008091810700E112E1E8
:10585000853009F411CE0E949E25C82E81110E9428
:10586000FA0D3AE9432E37E0532E83E192E09AA7EE
:1058700089A747E457E0DC01920110E000E0A02E88
:10588000F901F1909F018D91F822FA018191AF0108
:105890008F1509F402CE8F25D12CEE24E394982F96
:1058A0009E2109F4F5CD0E941410882399F0D98225
:1058B000AA82FE2081E009F480E08B830E94361DDD
:1058C0008160782F9D838C8349815A816B81892FD8
:1058D0000E946C24F801E95BF84F80818E2580835B
:1058E0008091CC07882309F465C08091CB07E091B3
:1058F000CE07E695E81BE0939407823009F0E4CDEB
:10590000F0E0E55FF34FE4910E2F10E022EBE22E82
:1059100022E1F22E80919507882361F0109295077D
:105920000E94421D909393078093920710929707CD
:10593000109296070E94421D9C01809192079091BF
:105940009307A901481B590B4F3F5F4798F54091BA
:10595000F4024423B1F01092F4024091F20250910B
:10596000F302241B350B2F3F3F4758F4405D5A4844
:105970005093F3024093F2022091CD0728602093C8
:10598000CD078090960790909707800F911F909376
:1059900093078093920782E997E0F7010995809138
:1059A000960790919707892B29F4892819F081E0AF
:1059B0008093F40240912001E42FE295EF70E05EC5
:1059C000F0E0208130911F01E32FE295EF70E05E5F
:1059D000F0E0808190E03F7002C0959587953A9500
:1059E000E2F7880F991F8270992730E04F7002C04C
:1059F000359527954A95E2F721703327822BE09160
:105A0000F602EE0FEE0FE82BE093F60210918D07F1
:105A1000EF70F0E0ED50FE4F80819091F502890F1C
:105A20008093F502D12C84306CF0E12FF0E0E55743
:105A3000F84F80818F5F808360E0812F0E94FE2479
:105A4000DD24D3948091F5028D3F6CF4E12FF0E0DA
:105A5000E557F84F80818150808361E0812F0E945B
:105A6000FE24DD24D3948091F502082E000C990BBE
:105A700064E070E00E94CC338093F502D1100E9464
:105A80001A0E809144078823A1F1809142079091DA
:105A900043070E948F25C29708F053CD20913C0701
:105AA00030913D072115310509F0AFCD80914F07A9
:105AB0008823F9F00E94FA0D6DA77EA78FA798ABF7
:105AC00080913E0790913F07A0914007B091410718
:105AD0002DA53EA54FA558A9281B390B4A0B5B0BDA
