:100000000C9440080C9478080C9478080C94C92C33
:100010000C9478080C9478080C9478080C94780860
:100020000C9478080C9478080C94D11D0C94861CC0
:100030000C94531F0C9478080C9478080C9478084E
:100040000C9478080C9478080C9478080C94780830
:100050000C9478080C94061F0C9478080C9478087B
:100060000C9478080C9478080C9478080C94780810
:100070000C9478080C9478080C9478080C94780800
:100080000C9478080C9478080C9478080C947808F0
:100090000C9478080C9478080C9478080C947808E0
:1000A0000C9478080C9478080C947808910C910CB6
:1000B000C30CC30C350DDD0EDD0EDD0E510D2F0E04
:1000C000400E400EA313A613A913AC13AF13B21323
:1000D000B5138A28B128492AB128492AF9281C29A8
:1000E000492A0B2A1E2A00DA1281FFD9F1DB20A44B
:1000F000A62EAF00A0C000A1C800AED580A83FD3F7
:1001000000408D14200000000000000000000000EE
:100110000000008080C0E0F07078383C1C1E0E0E9D
:100120000E07070707070707070707070707070758
:10013000070E0E0E1E1C3C387870F0E0C080800068
:1001400000000000000000000000000000000000AF
:10015000000000000000000000000000000000009F
:10016000000000000000000000000000000000008F
:10017000000000000000000000000000000000007F
:1001800000000000000000000000000000C0E0F0DF
:100190007C3E1F0F07030180C0E0F078383C1C1E36
:1001A0000E0E070787E77F1FFFFF1F7FE787070701
:1001B0000E0E1E1C3C3878F0E0C0800103070F1FB4
:1001C0003E7CF0E0C00000000000000000000000E5
:1001D000000000000000000000000000000000001F
:1001E000000000000000000000000000000000000F
:1001F00000000000000000000000000000000000FF
:1002000000000000000000000000F0FCFF1F0701DC
:100210000000C0F0FCFEFFF7F3B1B03030303030FA
:10022000303078FE87010000FFFF00000187FE7874
:1002300030303030303030B0B1F3F7FFFEFCF0C07A
:10024000000001071FFFFCF000000000000000009C
:10025000000000000000000000000000000000009E
:10026000000000000000000000000000000000008E
:10027000000000000000000000000000000000007E
:10028000000000000000000000FFFFFF0000000071
:1002900000FEFFFF0101071E78E181838386868CC3
:1002A0008C9898B1B7FEF8E0FFFFE0F8FEB7B19880
:1002B000988C8C8686838381E1781E070101FFFF7D
:1002C000FE0000000000FFFFFF00000000FFFF0035
:1002D00000C0C030300000F0F0000000000000F06E
:1002E000F00000F0F0C0C030303030C0C00000304E
:1002F00030F3F3000000000000303030303030C008
:10030000C00000000000000000FFFFFF0000000030
:10031000007FFFFF8080E0781E8781C1C16161316D
:100320003119198DED7F1F07FFFF071F7FED8D1915
:100330001931316161C1C181871E78E08080FFFF82
:100340007F0000000000FFFFFF000000003F3F03B0
:10035000030C0C3030000000003333333333330FE1
:100360000F00003F3F0000000000000000000030D0
:10037000303F3F303000000C0C3333333333333FE6
:100380003F0000000000000000000F3FFFF8E08089
:100390000000030F3F7FFFEFCF8D0D0C0C0C0C0CFA
:1003A0000C0C1E7FE1800000FFFF000080E17F1E3B
:1003B0000C0C0C0C0C0C0C0D8DCFEFFF7F3F0F03C2
:1003C000000080E0F8FF3F0F000000000000000088
:1003D000000000000000000000000000000000001D
:1003E000000000000000000000000000000000000D
:1003F00000000000000000000000000000000000FD
:100400000000000000000000000000000003070FD3
:100410003E7CF8F0E0C0800103070F1E1C3C3878DA
:100420007070E0E0E1E7FEF8FFFFF8FEE7E1E0E0F2
:10043000707078383C1C1E0F07030180C0E0F0F894
:100440007C3E0F07030000000000000000000000D9
:10045000000000000000000000000000000000009C
:10046000000000000000000000000000000000008C
:10047000000000000000000000000000000000007C
:10048000000000000000000000000000000000006C
:10049000000000010103070F0E1E1C3C387870702D
:1004A00070E0E0E0E0E0E0E0E0E0E0E0E0E0E0E0BC
:1004B000E070707078383C1C1E0E0F0703010100BD
:1004C000000000000000000000000000000000002C
:1004D000000000000000000000000000000000001C
:1004E000000000000000000000000000000000000C
:1004F00000000000000000000000000000000000FC
:100500000000000000002020202020202000534375
:10051000524C434B2000202020202020200043412B
:10052000504C434B200020202020202020004E55FE
:100530004D4C434B2000556E646566696E65640AD8
:100540000041646A7573740A0046756E6374696F5E
:100550006E0A0053796D0A004E61760A00436F6C93
:10056000656D616B2D44480A0044766F72616B0AB9
:10057000005157455254590A004C617965723A202E
:1005800000726576320A0A004B7972696120008038
:100590008182838485868788898A8B8C8D8E8F90D3
:1005A00091929394A0A1A2A3A4A5A6A7A8A9AAAB3F
:1005B000ACADAEAFB0B1B2B3B4C0C1C2C3C4C5C6B6
:1005C000C7C8C9CACBCCCDCECFD0D1D2D3D40000EE
:1005D0000101010101010101010202020202020204
:1005E00002020303030303030303040404040404D7
:1005F000040505050505060606060607070707079D
:1006000008080808090909090A0A0A0B0B0B0C0C4F
:100610000C0D0D0D0E0E0E0F0F0F101011111112EB
:100620001213131414151516161717181819191A6A
:100630001A1B1B1C1D1D1E1E1F20202122222324CD
:1006400024252626272829292A2B2C2D2D2E2F300C
:10065000313232333435363738393A3B3C3D3E3F20
:10066000404142434445464748494A4C4D4E4F500D
:10067000515354555658595A5B5D5E5F61626465CB
:100680006668696B6C6D6F7072737577787A7B7D55
:100690007E8082838587888A8C8E8F9193959698A9
:1006A0009A9C9EA0A2A3A5A7A9ABADAFB1B3B5B7C5
:1006B000BABCBEC0C2C4C6C9CBCDCFD1D4D6D8DB9C
:1006C000DDDFE2E4E7E9EBEEF0F3F5F8FAFDFF0039
:1006D000AF00AE000000001700150008001A00145B
:1006E000002B00000000000A0009000700160004AB
:1006F000002961390030000500190006001B001DAB
:1007000000E10003512C002864E3000000065100C2
:10071000000000000000001C0018000C0012001374
:10072000002F00000000000B000D000E000F003332
:10073000002A0005513471110010003600370038CE
:1007400000E50004512C00E600E700000065000011
:10075000000000000000001C0013003700360034C9
:10076000002B00000000000C00180008001200041C
:1007700000296139002F001B000E000D001400330A
:1007800000E10003512C002864E300000006510042
:100790000000000000000009000A00060015000F1C
:1007A000002A000000000007000B001700110016CF
:1007B000002D7105513000050010001A0019001DB0
:1007C00000E50004512C00E600E700000065000091
:1007D000000000000000000500130009001A0014CA
:1007E000002B00000000000A00170016001500048E
:1007F00000296139002F001900070006001B001DA9
:1008000000E10003512C002864E3000000065100C1
:10081000000000000000000D000F0018001C003355
:10082000002A00000000001000110008000C001257
:10083000003471055130000E000B003600370038CF
:1008400000E50004512C00E600E700000065000010
:100850000000000000000001000100010001000193
:10086000000100000000000100E100E000E200E300
:10087000000100470001000100010001000100012A
:100880000001000100010001000100000001000062
:10089000000000000000004B004A0052004D00A97B
:1008A000004C00000000004E00500051004F00AA14
:1008B000004900010001004800AC00AE00AB00A8F8
:1008C00000460001000100010001000000010000DD
:1008D000000000000000002200210020001F001E78
:1008E000003500000000002202210220021F021E2B
:1008F00002350201002F022F002D00330033023198
:1009000000310201000100010001000000010000AF
:10091000000000000000002300240025002600271E
:10092000002E0000000000230224022502260227D8
:10093000022E020100300230002D0236003700384E
:100940000038020100010001000100000001000068
:100950000000000000000001004500440043004288
:10096000000100000000000100410040003F003E87
:100970000001000100010001003D003C003B003A85
:100980000001000100010001000100000001000061
:100990000000000000000001000100010001000152
:1009A000000100000000000100E500E400E200E7B3
:1009B000000100010001000100010001000100012F
:1009C0000001000100010001000100000001000021
:1009D00000000000000000010001000052010001C1
:1009E00000010000000000010001000152010001AF
:1009F000000100010001000100010002520100019C
:100A000000010001000100010001000000010000E0
:100A100000000000000000010001000100010001D1
:100A200000010000000000C35CC85CC65CCA5CC476
:100A30005C0100010001000100C95CC75CCB5CC522
:100A40005C01000100010001000100000001000044
:100A500000000005010980A101850319012AB700E2
:100A6000150126B700950175108100C0050C09011C
:100A7000A101850419012AA002150126A0029501F1
:100A800075108100C005010906A101050719E029BB
:100A9000E71500250195087501810295017508810A
:100AA000010507190029FF150026FF0095067508A6
:100AB0008100050819012905950575019102950127
:100AC00075039101C009023B00020100A0FA09046C
:100AD0000000010301010009211101000122400071
:100AE000070581030800010904010001030000005B
:100AF00009211101000122320007058203200001B3
:100B000012010002000000081D8D9D9D02000102DF
:100B1000000116034B00790072006900610020009B
:100B20007200650076003200000010037300700050
:100B30006C00690074006B0062000000040309048B
:100B400007087F0807003E5B4F5B3E003E6B4F6B24
:100B50003E001C3E7C3E1C00183C7E3C18001C578E
:100B60007D571C001C5E7F5E1C0000183C180000B6
:100B7000FFE7C3E7FF00001824180000FFE7DBE7EA
:100B8000FF0030483A060E00262979292600407FCA
:100B900005050700407F05253F005A3CE73C5A0009
:100BA0007F3E1C1C0800081C1C3E7F0014227F2274
:100BB00014005F5F005F5F0006097F017F00006631
:100BC00089956A0060606060600094A2FFA2940052
:100BD00008047E04080010207E20100008082A1C4B
:100BE0000800081C2A0808001E10101010000C1E17
:100BF0000C1E0C0030383E383000060E3E0E06004B
:100C000000000000000000005F0000000007000777
:100C10000000147F147F1400242A7F2A120023135B
:100C2000086462003649562050000008070300009F
:100C3000001C224100000041221C00002A1C7F1CD5
:100C40002A0008083E0808000080703000000808EC
:100C5000080808000000606000002010080402007E
:100C60003E5149453E0000427F40000072494949DB
:100C700046002141494D33001814127F10002745CA
:100C8000454539003C4A49493100412111090700D5
:100C9000364949493600464949291E0000001400DA
:100CA0000000004034000000000814224100141429
:100CB000141414000041221408000201590906000E
:100CC0003E415D594E007C1211127C007F4949491A
:100CD00036003E41414122007F4141413E007F4973
:100CE000494941007F09090901003E414151730012
:100CF0007F0808087F0000417F4100002040413FFD
:100D000001007F08142241007F40404040007F02E4
:100D10001C027F007F0408107F003E4141413E00DD
:100D20007F09090906003E4151215E007F0919290A
:100D3000460026494949320003017F0103003F4034
:100D400040403F001F2040201F003F4038403F00F0
:100D50006314081463000304780403006159494DC7
:100D60004300007F4141410002040810200000417F
:100D700041417F0004020102040040404040400025
:100D80000003070800002054547840007F284444A2
:100D90003800384444442800384444287F003854FC
:100DA0005454180000087E09020018A4A49C78007E
:100DB0007F080404780000447D4000002040403D4E
:100DC00000007F102844000000417F4000007C04A8
:100DD000780478007C0804047800384444443800DF
:100DE000FC182424180018242418FC007C0804048F
:100DF000080048545454240004043F4424003C4058
:100E000040207C001C2040201C003C4030403C0026
:100E10004428102844004C9090907C004464544C2A
:100E20004400000836410000000077000000004147
:100E3000360800000201020402003C2623263C0082
:100E4000000000000000404040F0F8F8FF38FFF8D4
:100E5000F83FF8F8FF38FFF8F8F040404000000095
:100E600000000080C0C0C0800000C0C08000000042
:100E700080C0C000C0C0000080C0C00000000000F2
:100E8000C0C0C0C0C000C0C0000000000000000022
:100E90000000000000000000000000000000000052
:100EA0000000000000000000000000000000000042
:100EB000000000000000000000000000000000C072
:100EC000F0F8FC3E1E06010000007F4141417F001A
:100ED0007F4141417F000080C0E07E5B4F5BFEC0F0
:100EE0000000C000DCD7DEDEDED7DC00C000000082
:100EF00000000000000000000000000000000000F2
:100F0000000000000000494949FFFFFFFFE0DFBF8C
:100F1000BF00BFBFDFE0FFFFFFFF494949000000FE
:100F200000001F3F6060E0BF1F007F7F071E381E6C
:100F3000077F7F007F7F0E1F3B7160000000000075
:100F40007F7F0C0C0C007E7E007F7E0303007F7E83
:100F500003037E7E03037F7E000F3E703C063C70E1
:100F60003E0F00327B49493F7E007F7E0303001E17
:100F70003F69696F260000000000000000000003C8
:100F80000F1F3F3C7870600000007F4141417F00AF
:100F90007F4141417F00307B7F7830202030787F57
:100FA0003B0003000F7F0F0F0F7F0F0003000000B7
:100FB0000000000000000000000000000000000031
:100FC000000000000000010101070F0F7F0F7F0FDD
:100FD0000F7E0F0F7F0F7F0F0F0701010100000031
:100FE00000000000000000010100000000000000FF
:100FF00000000000000000000000000000000000F1
:1010000000000000000000000000000000000000E0
:1010100000000000000000000000000000000000D0
:1010200000000000000000000000000000000000C0
:1010300000000000000000000000000000000000B0
:1010400000000000000000000000000000000000A0
:101050000000000000000000000000000000000090
:101060000000000000000000000000000000000080
:101070000000000000000000000000000000000070
:1010800011241FBECFEFDAE0DEBFCDBF04B603FEF2
:1010900018C080916B0790916C07A0916D07B0917B
:1010A0006E078730904BA740B04B59F410926B07F6
:1010B00010926C0710926D0710926E07E0E0F8E353
:1010C000099511E0A0E0B1E0EAE1FDE502C005907C
:1010D0000D92AA3CB107D9F727E0AAECB1E001C014
:1010E0001D92AB36B207E1F70E94ED0F0C948B2EE8
:1010F0000C940000882371F19CEF980F913A60F4F2
:10110000E6EDF2E09281891301C01282319692E0FD
:10111000EC3DF907B9F70DC090E2980F983058F4FC
:10112000982F977081E001C0880F9A95EAF70E9486
:1011300079220C9480229BE5980F933020F480E074
:1011400090E00C94AC1F885A873120F480E090E046
:101150000C94961F0895CF93882309F453C09CEFF5
:10116000980F913AF8F4C82FE8EDF2E08EED92E096
:101170002191C21721F08E179F07D1F70DC0E6ED20
:10118000F2E08281C81301C01282319642E0EC3D48
:10119000F407B9F70E9480226C2F86ED92E00E943E
:1011A0007C1F13C090E2980F983090F4877021E074
:1011B00030E0A90102C0440F551F8A95E2F7CA0129
:1011C00090914803892B80934803CF910C948022FF
:1011D000EBE5E80FE33040F4F0E0EC56FE4F8081A1
:1011E00090E0CF910C94AC1F885A873158F4E82FC7
:1011F000F0E0EE0FFF1FE956FE4F80819181CF9105
:101200000C94961FCF9108951F93CF93DF93CDB782
:10121000DEB767970FB6F894DEBF0FBECDBF4B8B1E
:101220005C8B6D8B7E8B8F8B61111092470386E0F8
:101230009E01235F3F4FD901E82F1D92EA95E9F700
:1012400095E0FE017396D90101900D929A95E1F710
:101250009C894E895F897B897D879E876F87598BA3
:10126000488BF901DE01179601900D928A95E1F7FE
:10127000CE0107960E94D62381113EC086E0FE0172
:101280003796DE01119601900D928A95E1F7FF8164
:10129000E8856A857B856115710531F0EF3F31F492
:1012A00081E0FF3F19F403C081E001C080E080FDD0
:1012B00023C020910C0330E0C90101968770992763
:1012C00040913D0350E08417950779F1F983EA8353
:1012D0007D836C8396E0929FD001939FB00D112483
:1012E000A35FBC4FFE01319601900D929A95E1F7F4
:1012F00080930C030E94C82216E080913D039091D8
:101300000C038917F9F0189FC0011124835F9C4FCB
:101310000E94D6238823B1F080913D0390E001968E
:101320008770992780933D03E8CF0E946226109230
:101330000C0310923D03E6E0F3E086E0DF011D922E
:101340008A95E9F767960FB6F894DEBF0FBECDBF5A
:10135000DF91CF911F9108958F929F92AF92BF928C
:10136000CF92DF92EF92FF920F931F93CF93DF9371
:10137000CDB7DEB72A970FB6F894DEBF0FBECDBF4C
:10138000FC01D080118183819481892B39F01F3F2A
:1013900039F491E00FEFD01203C003C091E001C017
:1013A00090E090FDECC57F0185E0DE01169601908E
:1013B0000D928A95E1F7F70122818E819F81222388
:1013C00049F00E943E23082F682F8E819F810E9442
:1013D000A32503C00E947725082FE12FF0E018E035
:1013E000019FE00DF11D112463E0EE0FFF1F6A95D0
:1013F000E1F7ED0DF11DEE0FFF1FED52F94F0591D5
:101400001491043F2CE5120759F190F4093D8CE545
:101410001807E9F00A3D9CE51907A1F1083DECE544
:101420001E07B1F506E221EE41EE68ED7CE514C041
:10143000063FFCE51F0701F1C8F0073F3CE5130735
:1014400039F507E225EE46EE67EF7CE505C007E2D9
:1014500025EE45EE69ED7CE5C7010E94D21FF6C47A
:1014600006E221EE40EE64EF7CE5F6CF07E225EEE2
:1014700044EE65EF7CE5F0CF06E221EE42EE66EF4A
:101480007CE5EACF08E221E045EE6AED7CE5E4CFB9
:10149000F7018281882309F45BC11092C6020430EF
:1014A000FDE51F0758F40B3F2CE5120780F4C80137
:1014B00082509C45449708F035C109C002363DE58D
:1014C000130729F0063A8DE5180709F02BC10E9491
:1014D000F7219093DC018093DB0101319CE5190732
:1014E00009F4C6C008F042C00930FCE51F0709F442
:1014F0009BC000F505303CE5130709F485C078F47E
:1015000003309CE5190709F478C008F07AC002306E
:101510001C4509F0F7C08091DB018160F1C0073004
:101520002CE5120709F478C008F07AC08091DB013D
:101530008061E6C00D308CE5180709F487C058F4C7
:101540000B30ECE51E0709F479C008F07BC08091F0
:10155000DB0188606FC00F302CE5120709F480C0F2
:1015600008F082C08091DB01877FCAC00E3F8CE506
:10157000180709F471C000F50531ECE51E0709F400
:1015800085C068F403312CE5120709F475C008F032
:1015900095C00E9462268091DB018F77B1C00C3F1D
:1015A0008CE51807A9F108F054C00B3F1C4509F061
:1015B000A9C08091DC0140C00230FDE51F0709F49D
:1015C00089C058F401153DE5130709F45AC008F025
:1015D00069C08091DC0182602FC002369DE5190749
:1015E00009F47EC0063AEDE51E0709F483C0033016
:1015F0001D4509F087C060E06EC08091DB0182600C
:101600007FC08091DB0116C08091DB01886078C0CB
:101610008091DC0182604FC08091DB01806270C0EC
:101620008091DB0180646CC00E9462268091DB01A6
:10163000806866C0846064C081603DC08091DB01C9
:101640008E7F5EC08091DB018D7F5AC08091DB016F
:1016500016C08091DC0118C08091DC018D7F2BC009
:101660008091DB018F7E4CC08091DB018F7D48C073
:101670008091DB018F7B44C08091DB01877F8B7F72
:101680003FC08091DC018D7F8E7F15C08091DB0192
:1016900082FB222720F991E0922790FB82F990FBB0
:1016A00083F92EC08091DC01982F909591708E7FE8
:1016B000892B90FB81F98093DC0124C00E94622673
:1016C0008091DB0187FB222720F991E0922790FB94
:1016D00087F916C061E08EE090E00E941B2E12C0D8
:1016E0008091DB0184FB222720F991E0922790FB77
:1016F00084F906C08091DB01982F909590FB80F9CA
:101700008093DB016091DB011091DC0184E090E0CB
:101710000E941B2E612F82E290E00E941B2E0E94ED
:10172000622694C306312CE5120761F580914803C7
:101730008A7A91E009F490E09093CC01882311F02B
:1017400065E301C069E286ED92E00E947C1F17C04C
:101750000631FCE51F0709F06CC08091CC0188239D
:1017600009F497C385E3E6EDF2E02CED32E09281D7
:10177000891301C0128231962E173F07C1F70E94CC
:10178000802264C30B353DE5130709F44CC058F4BF
:1017900001159CE51907C1F00F3D1C4509F065C016
:1017A0000E94082253C30C35FDE51F0709F43DC014
:1017B0000D351D4509F059C08091DC0182FB882759
:1017C00080F991E0892732C00E9462263FEF84E3CE
:1017D0009CE0315080409040E1F700C0000081E083
:1017E0008093E00080E28093D8001092C900EFE17E
:1017F000FEE43197F1F700C0000087E090EBDC01D8
:1018000080936B0790936C07A0936D07B0936E075E
:101810009CE088E10FB6F894A895809360000FBE15
:1018200090936000FFCF81E001C080E00E941A2603
:101830001CC08091480382720A3C2CE5120709F40F
:1018400088C308F0F9C2063C9CE5190709F472C385
:1018500008F021C3043CFCE51F0709F461C308F04C
:1018600064C3033C1C4509F433C3F7018281008142
:101870001181882349F0C8010E943E23D82E682F89
:10188000C8010E94A32504C0C8010E947725D82E54
:10189000E12FF0E018E0D19EE00DF11D112433E0BE
:1018A000EE0FFF1F3A95E1F7E00FF11DEE0FFF1F5E
:1018B000ED52F94F859194910E9420188C01982E39
:1018C000F701D280A580A2945FE0A52280913E031B
:1018D0008770B9F0DD20A9F0812F807F803421F05E
:1018E00080E2800F883068F08091DC0182FD09C0C1
:1018F00082E00E94FD2580913E038770CC24C39432
:101900008111C12CB12EB2942FE0B2228B2D90E028
:101910008C30910508F051C2FC01EA5AFF4F0C943B
:101920006F2E812F807F1F70882311F01295107FFA
:10193000DD20B9F0112309F42DC280E2800F883038
:1019400010F0911006C080914803182B10934803A3
:1019500005C080914703182B109347030E948022F3
:1019600019C2802F0E947A08112309F426C2005E52
:10197000083078F1992069F1109580914703182378
:101980001093470329C0812F807F1F70803211F090
:101990001295107F992021F0F1E09F16D9F149C0EE
:1019A0008091DC0182FF1BC0DD2069F0112339F03A
:1019B00080914803182B109348030E94802280E0F6
:1019C0000E94AB08FAC180E00E947A08112309F452
:1019D000F4C1812F0E9479220E948022EEC1DD2075
:1019E00081F080914903AA2051F001E0A01207C0C4
:1019F000182B181709F4E1C110934903DEC1812B9C
:101A000010C0AA2021F021E0A21609F4D6C10E943C
:101A1000732227C0DD2041F035E03A1508F4CDC12E
:101A2000812F0E947426C9C184E08A1508F4C5C1BB
:101A300018C0DD2049F0AA2099F3F701858180FFC5
:101A4000A9C18F708583ECCFAA2059F0093309F022
:101A5000B1C1FFEF17EE23E0F15010402040E1F755
:101A6000A7C1812F0E946D26A8C1812F86958695DA
:101A7000837019F0813059F0A0C1DD2019F0C80140
:101A8000937002C080E090E00E94AC1F9CC1DD20FA
:101A900019F0C801937002C080E090E00E94961F88
:101AA00092C1812F837009F069C0D1108AC1902F33
:101AB000929596959770990F990F802F8F70882E19
:101AC000912CA12CB12C092E04C0880C991CAA1CA5
:101AD000BB1C0A94D2F704FF12C04FE050E060E054
:101AE00070E004C0440F551F661F771F9A95D2F708
:101AF000DB01CA0180959095A095B09503C080E068
:101B000090E0DC0116951695412F4370423019F193
:101B1000C8F40091F5011091F6012091F701309180
:101B2000F801413059F088299929AA29BB29BC011B
:101B3000CD0160237123822393230AC0802A912A36
:101B4000A22AB32ABC01CD01682979298A299B29B7
:101B50000E94582636C188299929AA29BB290091B3
:101B6000F5011091F6012091F7013091F801BC01C7
:101B7000CD016027712782279327EACFDD2019F056
:101B8000812F817001C08695882309F41AC1902F96
:101B9000929596959770990F990F802F8F70882E38
:101BA000912CA12CB12C092E04C0880C991CAA1CC4
:101BB000BB1C0A94D2F704FF12C04FE050E060E073
:101BC00070E004C0440F551F661F771F9A95D2F727
:101BD000DB01CA0180959095A095B09503C080E087
:101BE00090E0DC0116951695412F43704230D9F0F4
:101BF00068F50091F9011091FA012091FB013091F3
:101C0000FC01413059F088299929AA29BB29BC0136
:101C1000CD0160237123822393231EC0802A912A41
:101C2000A22AB32A13C088299929AA29BB2900917D
:101C3000F9011091FA012091FB013091FC01BC01E6
:101C4000CD01602771278227932706C0BC01CD01F3
:101C5000682979298A299B290E94CE25B2C01F7044
:101C6000DD2039F0812F0E943726802F0E947426B4
:101C7000A8C0802F0E946D26812F0E94D825A1C068
:101C8000802F32EF931609F443C0391538F090EFE6
:101C9000991659F0E1EF9E16B1F177C0F3EF9F1658
:101CA000F1F124EF921659F170C0DD2019F134E002
:101CB0003A1508F482C01F7181E090E0A0E0B0E026
:101CC000AC01BD0104C0440F551F661F771F1A9554
:101CD000D2F78091F9019091FA01A091FB01B091A6
:101CE000FC018A019B01082719272A273B27C901E4
:101CF000B80129C025E02A1508F45FC0DCCF809127
:101D0000DC0182FF23C0DD2029F0812F8F7130C0DC
:101D1000DD20D9F3812F8F710E94D8254EC0DD20A0
:101D200079F01F7181E090E0A0E0B0E0BC01CD014E
:101D300004C0660F771F881F991F1A95D2F703C03A
:101D400060E070E0CB010E94CE2537C0DD2099F025
:101D50001F71812F0E9437268091DC0182FD07C010
:101D600038E0139FC0011124836080933E03812FCC
:101D70000E94372622C081E00E94FD2581E08A155D
:101D8000E0F482E00E94FD2518C0DD2029F0AA20A1
:101D900009F4BBCF802F14CEAA2009F4BBCF89331E
:101DA00049F49FEFE7EEF3E09150E040F040E1F7B7
:101DB00000C00000802F0E947A0888EF8B0D8430CD
:101DC00010F40E94C21FCC20A9F080913E0380FD38
:101DD00011C0F70112828595859585950E94372659
:101DE000C7010E94AC0980913E0385958595859534
:101DF0000E94D82585E0F701DE01119601900D9231
:101E00008A95E1F789819A810E947725EA81F0E03D
:101E100008E0809FE00DF11D112483E0EE0FFF1F0D
:101E20008A95E1F78981E80FF11DEE0FFF1FED5252
:101E3000F94F85919491A3C00E3CFCE51F0709F46E
:101E400099C0A8F1073DECE51E07E8F580913E0337
:101E5000877009F494C0F7018281882309F48FC048
:101E60008091DC0182FD8BC082E02A960FB6F89447
:101E7000DEBF0FBECDBFDF91CF911F910F91FF90BD
:101E8000EF90DF90CF90BF90AF909F908F900C9489
:101E9000FD2589E268CC083C9CE5190709F44FC090
:101EA00008F052C04AEA5AE261EA7AE260C00C3CA9
:101EB0003CE5130709F452C008F055C04DE75AE25B
:101EC00061E77AE254C00E351D4509F4BFCFCDCC91
:101ED0008091B90280FF1EC08E7F8093B90260910D
:101EE000B9027091BA028091BB029091BC020E942B
:101EF000BE2A80917C02816080937C020FEF10E704
:101F000022E0015010402040E1F700C000000E9494
:101F1000BD209CCF81608093B90261E086952CC082
:101F200043EF5AE26CEF7AE222C04CEF5AE263EFE1
:101F30007AE21DC041EA5AE26AEA7AE218C049E848
:101F40005AE265E97AE213C045E95AE269E87AE2C1
:101F50000EC041E75AE26DE77AE209C044E65CE16F
:101F600065E77CE104C045E75CE164E67CE10E9452
:101F7000B7206CCF61E081E00E94D02A67CF2A961B
:101F80000FB6F894DEBF0FBECDBFDF91CF911F918A
:101F90000F91FF90EF90DF90CF90BF90AF909F9008
:101FA0008F90089581110AC0662321F060E070E0EF
:101FB00089EA0FC060E070E08AEA0BC0813059F412
:101FC000662321F060E070E08EE403C060E070E022
:101FD0008BE40E947E2681E00895CF93DF93CDB7F6
:101FE000DEB72F970FB6F894DEBF0FBECDBF84B714
:101FF000877F84BF0FB6F894A895809160008861B0
:1020000080936000109260000FBE90E080E80FB6F1
:10201000F89480936100909361000FBE85B780684B
:1020200085BF85B7806885BF87E495E19093CB0134
:102030008093CA010E94CA1C0E94701D8091E20018
:1020400084608093E2007894809156038823A1F005
:102050001091E9001F709091EC00892F817090FD24
:1020600080E8182B1092E9008091E80083FD0E941F
:10207000A4271F701093E90082E084BD93E095BD12
:102080009AEF97BD80936E001092CD011092CE0111
:102090001092CF011092D00123982B9A6E9A7698C5
:1020A00005E00A95F1F7000083B183FB882780F9EA
:1020B0006E98769A10EA1A95F1F780930C01809148
:1020C0000C01882321F010925A018AE003C08AE0B3
:1020D00080935A0180935B010E94761781110E94C0
:1020E000832C80910C01811124C0309160012091DA
:1020F0006101909162018091630130930801209306
:10210000090190930A0180930B0188E0E4E6F1E075
:10211000DE01119601900D928A95E1F7FE0131964C
:10212000A0E0B1E0CE01099621912D938E179F0773
:10213000D9F780910C01811102C094E001C090E0B8
:102140009093DA0184E0891B8093D90108E011E0C3
:10215000FCE0EF2EF1E0FF2ED8018D918D018F3F35
:1021600011F00E940918E016F106B1F700E011E045
:10217000E8E0EE2EE1E0FE2EF80181918F018F3F25
:1021800011F00E940918E016F106B1F788E0EFEDB2
:10219000F1E0DF01082F1D920A95E9F7E1EDF1E08A
:1021A000DF011D928A95E9F780E090E00E94152EEC
:1021B000893E9E4F11F00E94082282E090E00E942A
:1021C000072E8093E7010E94F7219093DC01809312
:1021D000DB0183E090E00E94072E682F70E080E032
:1021E00090E00E94582682E080933D0280E8809330
:1021F00060030E94172B6DE070E089EF90E00E9471
:102200004F27892B09F043C080913D0263E070E0C5
:1022100081FD3AC086EF90E00E944F27892BB9F5E7
:102220006DE070E086EE90E00E944F27892B79F5F3
:102230000E943B1FDC01CB01805A9541AF4FBF4F3D
:102240008093BE029093BF02A093C002B093C102DC
:10225000E3E6F3E080E094E0DF018C011D920150A1
:102260001040E1F7F0936A07E09369078FEF9FEF63
:10227000909362038093610381E08093C302809313
:10228000C20210923E0203C083EF90E0C5CF80915E
:10229000DD01811139C080E090E00E94152E893E59
:1022A0009E4F21F00E9408220E94002B88E090E0BF
:1022B0000E940F2E6093B9027093BA028093BB0202
:1022C0009093BC0280917C02836080937C026E7F3D
:1022D00071F40E94002B88E090E00E940F2E609322
:1022E000B9027093BA028093BB029093BC020E9421
:1022F000B32A8091B90280FF04C060E086950E94F5
:10230000D02A81E08093DD0180910C01811106C00B
:1023100085EF80931A0184EF8093190180911A014F
:10232000E82FE295EF70F0E041A1282F2F7081E0B7
:1023300090E0BC0102C0660F771F2A95E2F79B016F
:10234000362F3095342331A332A1232B22A32091A1
:102350001901E22FE295EF70F0E031A12F7001C07A
:10236000880F2A95EAF7982F9095932391A392A12D
:10237000892B82A38FE891E00197F1F700C000005C
:1023800020911A01E22FE295EF70F0E080A190E039
:102390002F7002C0959587952A95E2F781709091EC
:1023A0001901E92FE295EF70F0E020A130E09F7075
:1023B00002C0359527959A95E2F720FD02C090E07E
:1023C00001C092E0892B8093F40190910C0181E08F
:1023D00098279093F301891B8093DE010E94761762
:1023E000811102C00E94862C8DE091E09093CA0278
:1023F0008093C90260E4C62E88248394912C809136
:102400005603853009F04AC000E112E1809156037D
:10241000853009F03FC080915603843029F10E9435
:1024200060201092CD02A8E1B0E00FB6F894A89514
:10243000A09360000FBEC092600083B7817F84606C
:1024400083BF83B7816083BF7894889583B78E7F7D
:1024500083BF0FB6F894A89580916000886180933F
:102460006000109260000FBE80915503882309F42C
:10247000CDCF0E94011AEFEDF1E0ACE6B1E0919111
:102480008D91892309F0EDC227EE31E02E173F0729
:10249000B1F7BCCF0E9462260E94C21F0E94011A9F
:1024A000B82E81110E943B1F2FED31E0ACE6B1E068
:1024B00048EE51E000E010E0A02EF901F1909F01FC
:1024C0008D91F822FA018191AF018F2549F1D12C2C
:1024D000EE24E3949E2D9823F1F00E947617882332
:1024E00099F0D982AA82FE2081E009F480E08B83F2
:1024F0000E94471F8160782F9D838C8349815A8178
:102500006B818D810E940409F801E851FE4F8081A2
:10251000E826E0821AC0D394EE0CF8E0DF12DACF9E
:102520000F5F1F4F0830110539F68FEF89878A87B3
:102530001B860E94471F8160782F9D878C87498565
:102540005A856B858D850E9404090E947617E0915B
:10255000F4015E2F550F550F20911A01E22FE295DD
:10256000EF70F0E080A190E02F7002C09595879504
:102570002A95E2F78170992740911901E42FE2959D
:10258000EF70F0E020A130E04F7002C03595279544
:102590004A95E2F7F901E170FF2720FF02C0E2E06F
:1025A000F0E0E82BF92BE52BE093F4011091F30117
:1025B000EF70F0E0EC58FE4F90818091F201890FAE
:1025C0008093F201843074F0E12FF0E0E051FE4F8F
:1025D00080818F5F808360E0812F0E94D20FDD2495
:1025E000D39401C0D12C8091F2018D3F6CF4E12F86
:1025F000F0E0E051FE4F80818150808361E0812FC7
:102600000E94D20FDD24D3948091F201082E000C99
:10261000990B64E070E00E945B2E8093F201D11070
:102620000E94A9198091C302882309F40BC28091EA
:102630003F02909140020E942C1FC29708F4FFC0F5
:102640000E94471F9093400280933F0283E693E0ED
:1026500090936A07809369070E947617882309F48C
:10266000AFC08FE895E00E94412788E895E00E947E
:10267000412781E895E00E94412789E795E00E9483
:1026800041274091F9015091FA016091FB0170914D
:10269000FC018091F5019091F601A091F701B091B4
:1026A000F801842B952BA62BB72BAD016627772736
:1026B000411551056105710521F0DB01CA01E0E119
:1026C00001C0E0E0492F5A2F6B2F772741155105A4
:1026D0006105710519F0E85FDB01CA01AC01BD01BC
:1026E00034E076956795579547953A95D1F741151A
:1026F00051056105710519F0EC5FDB01CA01AC0100
:10270000BD0122E076956795579547952A95D1F7B3
:10271000411551056105710519F0EE5FDB01CA0134
:10272000B695A79597958795892B8A2B8B2B09F0C2
:10273000EF5F8E2F90E087309105D0F4FC01EE59C9
:10274000FF4F0C946F2E81E795E014C089E695E069
:1027500011C08DE595E00EC088E595E00BC083E5DE
:1027600095E008C089E495E005C081E495E002C0E9
:1027700086E395E00E9441270E94C21F81FB00274B
:1027800000F982FB112710F980FD03C086E295E075
:1027900002C08EE295E00E944127011103C086E14C
:1027A00095E002C08EE195E00E944127111103C01F
:1027B00086E095E002C08EE095E00E9441273FC090
:1027C0008091690790916A07835693409C013C5F12
:1027D0002130344028F020E034E0281B390B02C0BF
:1027E00020E034E06091610370916203DC01AD5937
:1027F000BC4FAC01280F391F42175307E0F4FA0110
:10280000E81BF90BEA5FFE4FE491FC91EF1779F0BA
:10281000EC93FA0116E0F695E7951A95E1F7840135
:1028200002C0000F111FEA95E2F7602B712B4F5F7A
:102830005F4F1196E1CF70936203609361038091C3
:10284000C302882309F4E3C020916103309162033D
:102850002115310509F4DBC080913E028111D7C0FA
:10286000282E312C7401082E02C0EE0CFF1C0A9495
:10287000E2F7A9014E215F21452B11F48F5FF0CFC4
:1028800090913D02910166E0220F331F6A95E1F7B6
:1028900090FD13C08295880F880F807480931D016E
:1028A000220F232F221F330B319520932001815CAF
:1028B00080931E011092210112C046E036952795A3
:1028C0004A95E1F7220F220F220F20931D0110924B
:1028D0002001295F20931E0187E08093210124E6D7
:1028E00030E047E050E06BE171E088E70E94CE2BDA
:1028F000892B09F08CC080913D0280FD23C0C1016D
:1029000026E0880F991F2A95E1F7AC014D595C4FDD
:1029100004E610E020E430E060E488E70E94F52B54
:10292000892B09F074C00E947A20E094F094809181
:10293000610390916203E822F922F0926203E0922F
:10294000610365C0EDEFF1E0DF010C2D1D920A95EA
:10295000E9F786E0220C331C8A95E1F72CE831E098
:102960003F872E8744E851E0AE85BF858D91BF87B4
:10297000AE87FA019191AF019101290F311D8901B3
:102980000D591C4F280190E083509E4FFC0107E039
:102990009F01281B390B782C01C0770C2A95EAF788
:1029A000B201A12CDB011D91BD011721202F2A1995
:1029B0002770622E022E000C330BB12F01C0BB0F0B
:1029C0006A94EAF76B2E31952195310927703327E8
:1029D00001C016952A95EAF7612A1081612A608262
:1029E000A39418E0A112DECF015031960F3F81F67B
:1029F00024E931E06E857F852617370709F0B4CFCB
:102A000004E610E020E430E04DEF51E085CF809106
:102A1000C2028823B9F00E943B1F0091BE021091B0
:102A2000BF022091C0023091C102DC01CB01801BAA
:102A3000910BA20BB30B8F3F9F4FAF4FBF4710F4CB
:102A40000E946020B11001C0D1100E947A200E9423
:102A5000C21F90914102891709F4D1CC80934102A1
:102A6000CECC09BD19BD09B400FEFDCF8091D800C0
:102A70008F7D8093D8008091E00082608093E00099
:102A80008091E00081FDFCCF0E946226BFCC80E0F7
:102A900008959091DB0192FF0DC0282F28712830F6
:102AA00019F4877F846006C0282F2471243011F424
:102AB0008B7F886093FF0DC0282F2871283119F46F
:102AC000877E846106C0282F2471243111F48B7E07
:102AD00088612091DC0120FF0DC0382F387138301B
:102AE00019F4877F816006C0382F3171313011F4BD
:102AF0008E7F886021FF0DC0282F2871283119F49E
:102B0000877E816106C0282F2171213111F48E7ECC
:102B1000886194FD877E0895AF92BF92CF92DF9235
:102B2000EF92FF920F931F93CF93DF937C015B0192
:102B30006A01809179028A3018F001E010E002C049
:102B40000AE010E0C1E0D0E0F894B501C701F60159
:102B500009957894811115C021960C171D0794F0E2
:102B6000CC9F9001CD9F300D300D112480E090E07E
:102B700045E34A95F1F70000019682179307C1F7E4
:102B8000E3CF81E0DF91CF911F910F91FF90EF9004
:102B9000DF90CF90BF90AF9008958F929F92AF92A9
:102BA000BF92CF92DF92EF92FF920F931F93CF933A
:102BB000DF93FB0180809180A280B3809FB7F8945F
:102BC000C090CE02D090CF02E090D002F090D1021F
:102BD0009FBFC818D908EA08FB08F4E6CF16D1044D
:102BE000E104F10410F4442341F17B01C82F880F64
:102BF000DD0B01151105A9F0FE0183E0EE0FFF1FAB
:102C00008A95E1F7EE5DFE4F81819281875A9D4F53
:102C1000408150E00417150708F4A801B9010E948B
:102C2000822ECE010E946F2D882341F00E943B1F0F
:102C3000F701608371838283938381E0DF91CF9179
:102C40001F910F91FF90EF90DF90CF90BF90AF90CA
:102C50009F908F9008950F931F93CF93DF931F92B0
:102C6000CDB7DEB78091C202898320916C0230E03B
:102C700090E041E02817390709F440E001E010E056
:102C80009E012F5F3F4F65E772E086E00E94CD1501
:102C90000F90DF91CF911F910F9108950F931F9384
:102CA000CF93DF93CDB7DEB728970FB6F894DEBF8A
:102CB0000FBECDBF85E0E9EBF2E0DE011196019099
:102CC0000D928A95E1F780917A0290917B02A09112
:102CD0007C028E839F83A88741E08885811101C093
:102CE00040E008E010E09E012F5F3F4F61E772E097
:102CF00085E00E94CD15811110927C0228960FB6B6
:102D0000F894DEBF0FBECDBFDF91CF911F910F9121
:102D100008956F927F928F929F92AF92BF92CF92BF
:102D2000DF92EF92FF920F931F93CF93DF931F9247
:102D3000CDB7DEB7C62E4A015901682E880F770835
:102D4000C3010E946F2D882309F473C0C30123E0DF
:102D5000880F991F2A95E1F7FC01EE5DFE4F438134
:102D600050E04115510511F041E050E0FC01EE5DED
:102D7000FE4F64817581675A7D4FCE0101960E9496
:102D8000822EF40140815181628173812FB7F894C2
:102D90008091CE029091CF02A091D002B091D10249
:102DA0002FBF841B950BA60BB70B84369105A1058D
:102DB000B10538F4B701C8010E94A0209981891794
:102DC000D1F10C2C000CDD08C6010E946F2D782E6D
:102DD0008823E1F0E114F104C9F0960183E0220FA9
:102DE000331F8A95E1F7F901EE5DFE4F438150E014
:102DF000E416F50608F4A701F901EE5DFE4F6481C3
:102E00007581675A7D4FC5010E94822EB701C801A6
:102E10000E94A02091E02981281390E0D92ED7208C
:102E200089F00E943B1FF401608371838283938346
:102E300009C0D12C02C0DD24D394A701B801C5017B
:102E40000E94822E8D2D0F90DF91CF911F910F91B7
:102E5000FF90EF90DF90CF90BF90AF909F908F90BA
:102E60007F906F900895CF92DF92EF92FF920F9331
:102E70001F93CF93DF9300D000D0CDB7DEB76B01A7
:102E800084E0E82EF12C0AE512E09E012F5F3F4F0F
:102E900041E552E061E080E00E948916882361F0FC
:102EA00049815A816B817C8140934D0250934E023F
:102EB00060934F027093500240914D0250914E0228
:102EC00060914F0270915002F601408351836283FA
:102ED00073830F900F900F900F90DF91CF911F9100
:102EE0000F91FF90EF90DF90CF90089580914C026A
:102EF000811118C08091D80080618093D8008AE148
:102F00008A95F1F700C08091D90080FD02C082E06F
:102F100001C081E080934C02823021F40E94CA1CDF
:102F20001092560381E090914C02913009F080E0BC
:102F300008950F931F93CF93DF9300D000D0CDB7A8
:102F4000DEB740916D0250916E0260916F027091F8
:102F500070022FB7F8948091CE029091CF02A09189
:102F6000D002B091D1022FBF841B950BA60BB70BDB
:102F700084369105A105B10508F441C00E94761779
:102F8000882319F00E943B1F0EC00E943B1F009136
:102F9000CD011091CE012091CF013091D001600F71
:102FA000711F821F931FDC01CB010296A11DB11D71
:102FB00089839A83AB83BC838091430190914401C0
:102FC000875A9D4F4091420150E04530510510F025
:102FD00044E050E0BE016F5F7F4F0E94822E84E08C
:102FE00090E00E946F2D882359F00E943B1F609350
:102FF0006D0270936E0280936F029093700281E075
:103000000F900F900F900F90DF91CF911F910F9124
:103010000895F894E82FE295EF70F0E031A1282FA1
:103020002F7081E090E001C0880F2A95EAF7982F71
:103030009095932391A392A1892B82A378940895CC
:10304000CF93DF938238910569F1B0F48133910514
:1030500009F46FC048F48932910509F465C08A32D9
:10306000910509F46BC08AC08533910509F457C0F6
:1030700089339105B9F082C0833E910571F138F42E
:10308000803E9105B1F0823E910511F177C0863EF8
:103090009105B9F1873E9105C9F1843E910509F08A
:1030A0006DC024C02091DB0120FD53C021FD51C023
:1030B00065C08091DB0180FD46C08091DC0180FF0E
:1030C00048C08091DB0184FD3FC183EE90E03EC1AA
:1030D0008091DB0182FF3AC0F4CF8091DB0182FD59
:1030E00035C08091DC0180FD34C0EBCF8091DC01E4
:1030F00081FF35C08091DB0184FD26C187EE90E021
:1031000025C18091DB0183FF27C0F4CF8091DB01D3
:1031100083FD22C08091DC0181FD21C0EBCF809135
:10312000DB0185FD1FC021C08091DB0185FD1DC035
:1031300019C08091DB0186FD1BC01DC08091DB01A1
:1031400086FD19C015C089E390E000C182EE90E0D1
:10315000FDC080EE90E0FAC086EE90E0F7C084EE0D
:1031600090E0F4C089E290E0F1C085E390E0EEC029
:103170008AE290E0EBC081E390E0E8C0811532E59F
:10318000930708F069C0811541E5940728F0982F4E
:103190008827816F906ADAC0883E910568F5803E85
:1031A000910508F0D3C0883A9105B8F4853A9105A5
:1031B00048F0855AE82FF0E0EC56FE4F808190E011
:1031C0009064C4C08130910509F4BBC008F4BCC050
:1031D0008430910508F4B8C0B9C08F3B910508F060
:1031E000B3C0885AE82FF0E0EE0FFF1FE956FE4FFC
:1031F000808191819464AAC0811520E59207F0F046
:103200009C0174E0369527957A95E1F7922F93709B
:10321000482F437021E030E002C0220F331F4A954F
:10322000E2F73C68392B8F70982F9695969540E27F
:10323000949FC0011124822B932B88C0811530E408
:10324000930718F09F70906A81C09C013A952115F0
:103250003F4108F47BC078C0EC01C11586E5D80772
:10326000E8F5C11525E5D20748F08C2F0E944915D5
:103270008F7190E0982F8827906268C0C11534E55F
:10328000D30728F09C2F8827846F906A5FC0AE0117
:10329000437055272C2F26952695C115D34578F4D4
:1032A00081E090E002C0880F991F4A95E2F740E262
:1032B000249F90011124822B932B9C6847C081E0AE
:1032C00090E002C0880F991F4A95E2F740E2249FE0
:1032D00090011124822B932B9A6838C0C1152AE5DE
:1032E000D207F8F4C11539E5D30790F08C2F8F7011
:1032F0000E94491594E0D695C7959A95E1F7CF704D
:10330000D0E0DC2FCC27D0699E01282BC9011EC03C
:10331000C11548E5D407C0F09C2F8827806F906ABC
:1033200015C0CE0190568115904270F48D2F8F718B
:103330000E944915282F2F71CE0199279062922B58
:1033400005C081E090E002C080E090E0DF91CF9185
:1033500008950C943B1FCF92DF92EF92FF920F9350
:103360001F93CF93DF931F92CDB7DEB7EE24E39484
:10337000F12C0FE512E09E012F5F3F4F45E552E033
:1033800063E082E00E948916C82E882379F1D090EC
:10339000DE018D2D90E09C0120513E4F7901198175
:1033A000F9018081181B012F80E010165CF4015098
:1033B000F70180818F5F808360E08D2D0E94D20FA6
:1033C00081E0F3CF912F17FD90E0191B112359F0E5
:1033D0001F5FF70180818150808361E08D2D0E9405
:1033E000D20F81E0F3CF81110E94A9198C2D0F908B
:1033F000DF91CF911F910F91FF90EF90DF90CF90D1
:1034000008957F928F929F92AF92BF92CF92DF9258
:10341000EF92FF920F931F93CF93DF93CDB7DEB759
:103420002C970FB6F894DEBF0FBECDBFAE014F5F35
:103430005F4F7A0188E0DA011D928A95E9F708E08A
:1034400011E06A018CE0A82E81E0B82E88248394D4
:10345000912CF80180818F3F09F441C0F894E82F46
:10346000E295EF70F0E021A18F70A40102C0440F3B
:10347000551F8A95E2F7CA01922F982B91A392A12A
:103480008095892382A3789400C0E0E0F1E0712C5C
:1034900031E021912F3F89F0A22FA295AF70B0E0CB
:1034A00090968C9190E02F7002C0959587952A9503
:1034B000E2F780FD02C0832F01C080E0782A330F3D
:1034C00051E0E830F50729F7D8018C918F3F11F0D2
:1034D0000E940918B0EABA95F1F7F60170820F5F01
:1034E0001F4FFFEFCF1ADF0AA016B10609F0B1CFC8
:1034F00048E050E0B70181ED91E00E94752E8C010B
:10350000892B41F088E0F701A1EDB1E001900D9227
:103510008A95E1F7F090DA010115110549F081E093
:10352000809344020E94471F90934302809342027B
:10353000809144028823B1F080914202909143022D
:103540000E942C1F059770F0A1EDB1E0EF2DF0E087
:10355000E152FE4F8D91819321E0A53DB207D1F755
:10356000109244020115110509F01DC10E94761741
:10357000E091DA01882309F479C019861A861B863E
:103580001C860E2F10E001521E4F809179028A3066
:1035900058F443E357E1BE01675F7F4FC8010E94C3
:1035A0008C15882399F10AC08091450290914602BA
:1035B0000E942C1F843F914060F73AC04BEA59E1CA
:1035C000BE01675F7F4FC8010E948C158823F1F010
:1035D00049E957E1BE01675F7F4FC8010E948C1522
:1035E0008823A1F04EE456E1BE01675F7F4FC8011A
:1035F0000E948C15882351F04BE256E1BE01675FB3
:103600007F4FC8010E948C158111D0C08091790232
:103610008F3F19F08F5F80937902809179028A3011
:1036200008F4C6C00E94471F90934602809345024B
:1036300080914B02811102C000E0CDC0FE0139969D
:1036400084E0DF011D928A95E9F710924B02E09128
:10365000D901F0E0E152FE4F89859A85AB85BC85A2
:1036600080839183A283B38301E0B5C0F0E0E1528F
:10367000FE4FF89484E0AAE5B2E001900D928A959D
:10368000E1F764E070E08AE592E00E94A020809378
:1036900059027894F894E091F301F0E0E051FE4F84
:1036A0008081898780935F0261E070E0CE01099696
:1036B0000E94A02080935E027894F894C0906002EB
:1036C000D0906102E0906202F09063028091470224
:1036D00090914802A0914902B0914A02C816D906B9
:1036E000EA06FB06D1F0C0924702D0924802E0926F
:1036F0004902F0924A020E94761781110EC00E9480
:103700003B1FC61AD70AE80AF90AC092CD01D09227
:10371000CE01E092CF01F092D0017894F89480919C
:103720006B02882399F180FF22C0909164028091FE
:10373000B90290FF09C081608093B90260E0892FCF
:1037400086950E94D02A13C08E7F8093B902809103
:103750007C02816080937C02BFEFE0E7F2E0B15031
:10376000E040F040E1F700C000000E94BD208091E1
:103770006B0281FF09C020E0409167026091660200
:10378000809165020E94092110926B027894F8944E
:1037900080916C02882319F00E947A2002C00E9456
:1037A0006020789418C001E010E015C010927902F2
:1037B0008091D90190E044E050E0BE01675F7F4F07
:1037C00081529E4F0E94752E21E020934B02892B3F
:1037D00009F03DCF31CF802F2C960FB6F894DEBF85
:1037E0000FBECDBFDF91CF911F910F91FF90EF9052
:1037F000DF90CF90BF90AF909F908F907F90089573
:103800000895089580914B0308958093D202709398
:10381000D4026093D30280915603843001F582E094
:103820008093E9008FEF9091E800815095FD06C0EC
:1038300095ED9A95F1F700008111F5CF8091E800A0
:1038400085FF0DC040E050E063E070E082ED92E063
:103850000E9478278091E8008E778093E800089591
:10386000BC0184E00C94051CBC0183E00C94051C95
:10387000CF93DF9321E02093E9002FEF3091E80010
:10388000215035FD06C035ED3A95F1F700002111C4
:10389000F5CF2091E80025FF14C0EC0140E050E096
:1038A00068E070E00E9478278091E8008E7780932E
:1038B000E80088E0FE01ACE4B3E001900D928A9547
:1038C000E1F7DF91CF9108958091BD02882319F02F
:1038D00081508093BD026091B9027091BA028091CB
:1038E000BB029091BC020C94BE2A8091BD02833031
:1038F00018F48F5F8093BD026091B9027091BA0293
:103900008091BB029091BC020C94BE2A1F920F9230
:103910000FB60F9211242F933F934F935F936F93A2
:103920007F938F939F93AF93BF93CF93DF93EF9347
:10393000FF93C091E900CF708091EC00D82FD17037
:1039400080FDD0E81092E9008091F000877F80939D
:10395000F00078940E94A4271092E9008091F00072
:1039600088608093F000CD2BCF70C093E900FF9169
:10397000EF91DF91CF91BF91AF919F918F917F9107
:103980006F915F914F913F912F910F900FBE0F90CC
:103990001F901895E8EDF0E080818E7F8083109273
:1039A000E2001092DA001092E100A0EEB0E08C91FB
:1039B00081608C9380818F77808319BCA7EDB0E004
:1039C0008C918E7F8C9380818F7E80831092D50224
:1039D00008952091E4003091E50095E64091EC00D7
:1039E000842F817040FF23C08091E80080FD1DC0BE
:1039F00080915603882399F0853099F08091EB00EF
:103A000085FD11C04091E4005091E5002417350771
:103A100029F3915011F09A01E1CF84E0089582E0FA
:103A2000089583E0089581E0089580E0089540912D
:103A3000E80042FFDDCF08958091580387FF11C051
:103A40008091E80082FD05C0809156038111F8CF76
:103A500011C08091E8008B770BC0809156038823BA
:103A600049F08091E80080FFF8CF8091E8008E77E0
:103A70008093E8000895982F973068F59093E900B7
:103A8000981739F07091EC002091ED005091F00002
:103A900003C0242F762F50E021FD02C09F5FECCFA2
:103AA0003091EB003E7F3093EB003091ED003D7F95
:103AB0003093ED003091EB0031603093EB00709368
:103AC000EC002093ED005093F0002091EE0027FDD4
:103AD000E5CF80E008958F708093E90081E008953C
:103AE000CF92DF92EF92FF920F931F93CF93DF93CA
:103AF000C8EDD0E088818F7E8883E7EDF0E080819B
:103B00008160808384E082BF81E08093D5028881D8
:103B10008E7F888302EE10E0F80110821092DA00A6
:103B200081EEC82ED12CF601108288818F77888390
:103B300088818068888388818F7D888319BC1092F2
:103B4000560310925703109255031092540390EEAF
:103B5000E92EF12CF70180818B7F80838881816041
:103B6000888342E060E080E00E943B1DF601808196
:103B70008E7F8083F801808181608083808188606E
:103B80008083F70180818E7F808388818061888334
:103B9000DF91CF911F910F91FF90EF90DF90CF9029
:103BA00008951F920F920FB60F9211242F933F93F7
:103BB0004F935F936F937F938F939F93AF93BF9335
:103BC000EF93FF938091E10082FF09C08091E200B2
:103BD00082FF05C08091E1008B7F8093E10080919E
:103BE000DA0080FF2AC08091D80080FF26C0809133
:103BF000DA008E7F8093DA008091D90080FF18C0B0
:103C000080E189BD82E189BD09B400FEFDCF81E07C
:103C1000809356038091D50281110FC00E94CA1C67
:103C20000E94701D8091E20084608093E20005C0D4
:103C300019BC109256031092D5028091E10080FFCA
:103C400017C08091E20080FF13C08091E2008E7F58
:103C50008093E2008091E20080618093E200809195
:103C6000D80080628093D80019BC85E08093560309
:103C70008091E10084FF30C08091E20084FF2CC07D
:103C800080E189BD82E189BD09B400FEFDCF80914C
:103C9000D8008F7D8093D8008091E1008F7E809343
:103CA000E1008091E2008F7E8093E2008091E2004B
:103CB00081608093E20080915703882311F084E0B3
:103CC00007C08091E30087FD02C081E001C083E06E
:103CD00080935603809156038091E10083FF27C0B3
:103CE0008091E20083FF23C08091E100877F809371
:103CF000E10082E080935603109257038091E10027
:103D00008E7F8093E1008091E2008E7F8093E200BD
:103D10008091E20080618093E20042E060E080E018
:103D20000E943B1D8091F00088608093F000FF911D
:103D3000EF91BF91AF919F918F917F916F915F9123
:103D40004F913F912F910F900FBE0F901F9018959C
:103D500020915E0330915F032617370748F0611505
:103D6000710539F42091E8002E772093E80001C016
:103D7000B901FC0120E06115710579F180915603CC
:103D80008823F1F18530F1F18091E80083FD3CC09A
:103D90008091E80082FD2EC08091E80080FFEBCF8B
:103DA0002091F3008091F20090E0922B6115710553
:103DB00051F08830910538F421912093F100615041
:103DC00071090196F3CF21E0089709F020E0809176
:103DD000E8008E778093E800CECF2111CFCF0AC0C4
:103DE00080915603882361F0853061F08091E8006E
:103DF00083FD0AC08091E80082FFF2CF80E0089541
:103E000082E0089583E0089581E0089578941F92F8
:103E10000F920FB60F9211248F939F93AF93BF937E
:103E20008091CE029091CF02A091D002B091D102A8
:103E30000196A11DB11D8093CE029093CF02A09355
:103E4000D002B093D102BF91AF919F918F910F900B
:103E50000FBE0F901F9018959C014FB7F89480915A
:103E6000CE029091CF02A091D002B091D1024FBF6B
:103E7000821B930B08952FB7F8946091CE02709136
:103E8000CF028091D0029091D1022FBF08952FB719
:103E9000F8948091CE029091CF02A091D002B0917F
:103EA000D1022FBF08951F920F920FB60F921124C7
:103EB0008F939F93AF93BF938091CD02811113C0D5
:103EC0008091CE029091CF02A091D002B091D10208
:103ED0004196A11DB11D8093CE029093CF02A09375
:103EE000D002B093D102BF91AF919F918F910F906B
:103EF0000FBE0F901F9018959C01FC0132969FEF0A
:103F000080E04191461789F09F3F19F4411101C0AB
:103F1000982F8F5F8630A9F79F3F39F0F901E90F9D
:103F2000F11D97FDFA956283089508952091CB02C3
:103F30003091CC022817390771F09093CC0280930E
:103F4000CB02E091C902F091CA02309721F00084BF
:103F5000F185E02D099408952091C7023091C8029F
:103F60002817390771F09093C8028093C702E09137
:103F7000C902F091CA02309721F00680F781E02D46
:103F8000099408950E947617882351F0E091C902A0
:103F9000F091CA02309721F00190F081E02D099450
:103FA00080E008950F931F93CF93DF93C42FD22FF8
:103FB000FC0182818823C9F04093C6020E94471FFA
:103FC0009093C5028093C40280E28C0F883008F081
:103FD00072C0C77081E001C0880FCA95EAF7DF910F
:103FE000CF911F910F910C9474268091C6024813B3
:103FF0003DC08091C4029091C5020E942C1F883C54
:104000009105A0F510E21D0FCD17E9F080E28C0FAD
:10401000883040F4C77081E001C0880FCA95EAF784
:104020000E946D26183090F581E09D2F977001C099
:10403000880F9A95EAF70E947426093369F560E5BE
:1040400070E089E32CC0093319F460E570E002C028
:1040500060E070E0802F0E947E26183060F5D770F7
:1040600081E001C0880FDA95EAF70AC080E28C0F80
:10407000883008F5C77081E001C0880FCA95EAF75B
:10408000DF91CF911F910F910C946D26093351F45C
:1040900060E570E089E309C060E070E0802F0E9475
:1040A0007E26DDCF60E070E0802FDF91CF911F9101
:1040B0000F910C947E26DF91CF911F910F9108955F
:1040C0008091C3029091C202882389F0992369F0FC
:1040D00062E070E081ED96E00E944F27892B19F095
:1040E0008091C20208951092C2029091C20281E0B2
:1040F000892708958091C3028823F9F00E943B1F0D
:10410000DC01CB01805A9541AF4FBF4F8093BE0277
:104110009093BF02A093C002B093C1028091C202EB
:1041200081110BC062E070E08FEC96E00E944F2797
:10413000892B19F481E08093C2028091C202089514
:10414000FC01680F791F8FEF91E3E617F70771F015
:104150002191822728E030E087FF03C0880F89275C
:1041600001C0880F21503109B9F7EFCF0895882396
:1041700011F0FA0101C0FB01099430915B018091BB
:10418000B90280FF16C0E0915A0163E0E69FF0019A
:104190001124E358FD4F539A8BB1877F9BB19860F0
:1041A0002FB7F894AF0163E0369F400D511D1124E5
:1041B00014C080915C0190915D01891720F7E82F70
:1041C000F0E0AF01440F551FE40FF51FE358FD4F1A
:1041D0001182108212828F5FF0CFE417F50789F009
:1041E000319168E09BB9000000C037FF8BB9330FF5
:1041F000000000C000C000C08BB900C06A9591F7F4
:10420000ECCF2FBF8FE594E00197F1F700C00000DD
:1042100008959F92AF92BF92CF92DF92EF92FF925A
:104220000F931F93CF93DF939091B90290FFD3C068
:10423000922E142FC62FD82FE92FE695F0E0E953E0
:10424000FE4F808180937A029E7F923009F095C064
:10425000E42FF0E0611106C0E153FA4FE491FE2F24
:104260002E2F72C0E62EF12CE153FA4FF4910F2F4E
:10427000CF2ED12C26E0D29FC00111242FEF30E0A9
:10428000B9010E94EA2D4BEA4603C001479F900DF9
:1042900011248D0F911D8D0F911DB82EBB0CB80EE2
:1042A000A9014E195F094C9DC0014D9D900D5C9D6B
:1042B000900D1124E92FCB9DA0011124452F5527E6
:1042C000D901A41BB50BAC9DA001AD9D500DBC9DAB
:1042D000500D1124D901AB19B1095D01AE9CD0017B
:1042E000AF9CB00DBE9CB00D1124AB2FBB272A1B79
:1042F0003B0B2C9DD0012D9DB00D3C9DB00D11248C
:104300002B2F6230710591F048F461157105E1F0D1
:1043100061307105B9F42F2FF52F16C06430710587
:1043200069F040F06630710579F00CC02F2FF92F3D
:10433000EB2F0AC0F92FE02F252F06C0292FEF2FD2
:10434000FB2F02C0292FE52F80915C0190915D0128
:10435000891788F4A82FB0E0AD01440F551FA40FB2
:10436000B51FA358BD4F1196FC9311972C9312962D
:10437000EC938F5FEDCF0E94BD208091BA02D813DD
:1043800008C08091BB02C81304C08091BC021817FA
:1043900029F080917C02826080937C02D093BA02E3
:1043A000C093BB021093BC029920A9F06091B9029E
:1043B0007091BA028091BB029091BC02DF91CF91C3
:1043C0001F910F91FF90EF90DF90CF90BF90AF9033
:1043D0009F900C94BE2ADF91CF911F910F91FF9077
:1043E000EF90DF90CF90BF90AF909F900895CF93C4
:1043F00084E090E00E94072EC82F82E290E00E94A5
:10440000072E2C2F30E0A901582BCA01CF91089517
:1044100069EE7EEF80E090E00E94392E60E082E05D
:1044200090E00E941B2E60E083E090E00E941B2E33
:104430001092F5011092F6011092F7011092F80116
:1044400060E084E090E00E941B2E60E082E290E059
:104450000E941B2E60E085E090E00E941B2E60E031
:1044600086E090E00E941B2E6FEF87E090E00E94B4
:104470001B2E40E050E0BA0188E090E00E942D2E13
:1044800060E08DE090E00E941B2E40E050E0BA0119
:1044900088E190E00E942D2E60E087E190E00E948C
:1044A0001B2E40E050E0BA018CE190E00E942D2EDE
:1044B00060E070E080E290E00E94392E40E050E041
:1044C000BA0188E190E00E942D2E40E050E0BA0150
:1044D0008FE090E00E942D2E40E050E0BA0183E191
:1044E00090E00C942D2E8091490381111092490384
:1044F00008958095909148038923809348030895F7
:104500009091480380914703982B9093D602809115
:104510004903882389F0892B8093D602E8EDF2E0E5
:1045200097E080E0915029F021912223D9F38F5F09
:10453000F9CF81110E94732248E050E06FE373E0ED
:1045400086ED92E00E94752E892BA9F088E0E6EDB9
:10455000F2E0AFE3B3E001900D928A95E1F7E091CC
:10456000C902F091CA02309731F00280F381E02D48
:1045700086ED92E00994089580E090E00E94AC1FDF
:1045800080E090E00E94961F109247030C948022D6
:1045900080913D0390910C03891719F08F5F87700C
:1045A000FBCF08950F931F93CF93DF9380910B035D
:1045B00082958F7009F05DC080910803882309F40B
:1045C00058C080913D0310910C03609106037091D7
:1045D0000703C0910903D0910A0391E06F3F09F0EE
:1045E00090E0292F06E0811709F443C0209721F0BD
:1045F0007F3F21F030E003C031E001C0322F90E076
:1046000030FD34C0089FF001099FF00D1124DF0137
:10461000A35FBC4F11963C911197371327C03C9173
:10462000361324C012963C91129731111FC0139675
:104630004D915C9114974C1B5D0B483C5105B0F4B7
:1046400080910B038F70806180930B03EE5EFC4FB3
:1046500080818F708061808386E093E00E94AC0946
:10466000DF91CF911F910F910C94C8220196877012
:10467000BACFDF91CF911F910F9108958F929F92A2
:10468000AF92BF92EF92FF920F931F93CF93DF935E
:104690008090F9019090FA01A090FB01B090FC018C
:1046A0004091F5015091F6016091F7017091F80188
:1046B000842A952AA62AB72ACFE1D0E0E92EF12C48
:1046C000082F10E0D501C4010C2E04C0B695A795A3
:1046D000979587950A94D2F780FD04C0219790F7AB
:1046E00080E01AC0FE0183E0EE0FFF1F8A95E1F71C
:1046F000EE0DFF1D93E0EE0FFF1F9A95E1F7E00F1F
:10470000F11FEE0FFF1FED52F94F859194910E941A
:104710002018019719F38C2FDF91CF911F910F91E2
:10472000FF90EF90BF90AF909F908F900895CF93A0
:10473000DF93D82FC92F0E943E23EC2FF0E098E0A2
:10474000899FE00DF11D112483E0EE0FFF1F8A9574
:10475000E1F7ED0FF11DEE0FFF1FED52F94F8591BF
:1047600094910E942018DF91CF910895FC018081DF
:1047700091810E94972392959F70963079F010F462
:10478000925001C09A50923068F4803F69F018F45A
:10479000883E40F409C0843F29F406C0883E20F0DA
:1047A000813F11F080E0089581E008959F92AF92DB
:1047B000BF92CF92DF92EF92FF920F931F93CF930E
:1047C000DF93CDB7DEB761970FB6F894DEBF0FBEAB
:1047D000CDBF8C0185E0F801DE011D9601900D92A0
:1047E0008A95E1F7F801E280909106036091070352
:1047F0004091090350910A034115510531F06F3F73
:1048000031F481E09F3F19F403C081E001C080E0F2
:10481000F82FF1709F2E80FD1AC1F801308121819F
:10482000C380D48086E0A82E83E0B82EF0900803E1
:10483000F601E41BF50BFF2009F4C6C080910B03C1
:10484000E83CF10508F091C0482F407F09F050C0C6
:10485000621311C093130FC0FE2CE1100CC08F70B7
:10486000806180930B03C5010E94AC0980910B030A
:10487000F801858329C1CD2831F02F3F31F481E043
:104880003F3F19F403C081E001C080E080FD03C018
:1048900081E08E2502C080E090E0F82FF170FF2EBD
:1048A00080FF1CC080913D0340910C0356E08417AB
:1048B00009F4E8C090E0589FF001599FF00D1124D1
:1048C000E35FFC4F6181261306C06081631303C060
:1048D0006281E61203C001968770E9CFFE2CEE20BC
:1048E00009F4F2C080910B03816080930B0349C0EF
:1048F000621306C0931304C0E11002C0F80186C021
:10490000C8010E94B623882351F1EE2041F1209185
:104910000B03822F82958F7090E0029774F0809144
:1049200006039091070398878F831986DB86CA86D2
:104930002C87CE0107960E94AC0986E0F801A6E01C
:10494000B3E001900D928A95E1F70E94D2220AC04D
:104950006217C9F0C8010E94B62381111EC0C801A8
:104960000E94AC09FF24F394AFC0482F407F81F729
:1049700086E093E00E94AC0986E0F50111928A95E9
:10498000E9F7F12CA1C09313E5CFE110E3CFF801D3
:104990008583C8010E94AC0954C0EE2001F3209128
:1049A0000B03822F82958F7090E0029734F28091F2
:1049B0000603909107039A8389831B82DD82CC8250
:1049C0002E83CE010196B7CFE83CF105D0F5FE2C41
:1049D000EE2029F2621327C0931325C020910B0308
:1049E00020FD18C0822F82958F70482F50E041150E
:1049F000510581F0F80125834F30510541F08F5F5B
:104A0000982F9295907F822F8F70892B8583C80174
:104A10000E94AC0986E0F801A6E0B3E001900D9297
:104A20008A95E1F751C0C8010E94B623811185CF54
:104A300080910B03816080930B03C8010E94AC0935
:104A400043C086E0F50111928A95E9F73DC0EE205A
:104A500009F485CFC8010E94B623F82E882309F4F3
:104A60007ECF86E0F801A6E0B3E001900D928A9532
:104A7000E1F780910603909107030E9497230E941B
:104A8000D22222C03D872E878D859E850E94972346
:104A9000292F22952F70223028F49F7039F0811130
:104AA00005C00BC0243028F49F7049F4805E883024
:104AB00020F0C8010E94AC099F2CF92C05C0F80118
:104AC0009581907F99F7F9CF8F2D61960FB6F89465
:104AD000DEBF0FBECDBFDF91CF911F910F91FF9031
:104AE000EF90DF90CF90BF90AF909F90089528E017
:104AF000929F800D1124682F669566956695982F74
:104B0000977085E0689FB001112440E050E080E09C
:104B1000FB01E40FF51FE252FD4F208130E0092E2A
:104B200002C0369527950A94E2F721703327042EA8
:104B300001C0220F0A94EAF7822B4F5F5F4F453086
:104B4000510531F7089528E0929F800D1124E82F38
:104B5000E695E695E695877051E001C0550F8A9578
:104B6000EAF785E0E89FF0011124E252FD4F20E0D2
:104B700030E070E04081CB01022E02C0969587950F
:104B80000A94E2F781708195842785238427819395
:104B90002F5F3F4F2530310569F708956093F90184
:104BA0007093FA018093FB019093FC010C94BC225A
:104BB0000F931F9341E050E060E070E004C0440FA9
:104BC000551F661F771F8A95D2F7409550956095BF
:104BD00070958091F9019091FA01A091FB01B0913B
:104BE000FC018A019B01082319232A233B23C901C5
:104BF000B8011F910F910C94CE2520913E03809512
:104C0000822380933E03982F977099F430E0482FC9
:104C1000082E000C550B2417350759F09091DC0134
:104C200092FD07C08595859585950E94D82510929F
:104C30003E030895CF93C091DC01C2FB992790F900
:104C4000981799F080FBC2F9C093DC016091DB01F9
:104C500084E090E00E941B2E6C2F82E290E00E9484
:104C60001B2E82E0CF910C94FD25CF9108950F93D8
:104C70001F9341E050E060E070E004C0440F551F16
:104C8000661F771F8A95D2F78091F9019091FA01FA
:104C9000A091FB01B091FC018A019B01082B192B0B
:104CA0002A2B3B2BC901B8011F910F910C94CE25E3
:104CB0006093F5017093F6018093F7019093F801EA
:104CC0000C94BC221092480386E0E8EDF2E0DF018C
:104CD0001D928A95E9F70C94BC22882321F00E944A
:104CE00079220C9480220895882339F0909148030A
:104CF000892B809348030C94802208951F93CF93AF
:104D0000DF93182FEB010E94AB08209741F08FE949
:104D10009FE00197F1F700C000002197F6CF812FA7
:104D2000DF91CF911F910C947A08CF93DF93C091BC
:104D30006907D0916A078A30B1F420916003CE01EF
:104D400083569340622F70E00E94EA2D281B822F29
:104D500066E00E944F2EC82FC15008F48FC080E239
:104D60000E949526F9CF8D30E9F4C356D3402091A7
:104D70006003622F70E0CE010E94EA2D281B822F73
:104D80009E01280F311D2115344018F080E0C0E04D
:104D9000D0E0C80FD11DCD59DC4FD0936A07C09326
:104DA00069076CC096E0FE01A3E6B7E001900D92A2
:104DB0009A95E1F7803E30F086E0FE0111928A95E7
:104DC000E9F70BC0F6E08F9FB0011124605C744FCF
:104DD00046E050E0CE010E94FE2DC0916907D091BF
:104DE0006A0746E050E0BE0183E697E00E94752E18
:104DF000892B49F19E0123563340A90186E056953F
:104E000047958A95E1F781E090E0BC0102C0660F0A
:104E1000771F4A95E2F74091610350916203462B58
:104E2000572B2B5F3F4F66E0369527956A95E1F744
:104E300002C0880F991F2A95E2F7842B952B909337
:104E40006203809361039E012D55334040916003BE
:104E5000642F70E0C9010E94EA2D481B463010F40F
:104E6000240F311D211584E0380710F020E030E0D8
:104E70002D593C4F30936A0720936907DF91CF91FA
:104E80000895CF93DF93EC01FE018491882321F0F4
:104E90000E9495262196F8CFDF91CF910895EF9249
:104EA000FF920F931F93CF93DF93EC017B0164E696
:104EB00070E088E70E941D2B8C01EC0EFD1ECE15C4
:104EC000DF0561F017FD0AC0FE01849164E670E021
:104ED0000E949E2B8C012196892B89F30E94222C03
:104EE000C801DF91CF911F910F91FF90EF9008952E
:104EF000EF92FF920F931F93CF93DF937C018B016F
:104F00000E94E91C811119C0E70101151105A1F0EA
:104F10008091E80085FD0AC08091E8008E7780933B
:104F2000E8000E94E91C882381F307C089918093DF
:104F3000F10001501109E9CF80E0DF91CF911F917D
:104F40000F91FF90EF9008951F93CF93DF93CDB70C
:104F5000DEB7AA970FB6F894DEBF0FBECDBFE8E567
:104F6000F3E080E693E02091F10021938E179F07F4
:104F7000D1F780915903833009F461C030F4813056
:104F800071F0823009F49BC0B2C08A3009F487C046
:104F90008B3009F46CC0893009F0A9C020C0809121
:104FA0005803813A09F0A3C08091E800877F80937D
:104FB000E80080915C0390915D03892B21F468E007
:104FC0008CE493E003C060E080E090E070E00E9439
:104FD000A81E8091E8008B778093E80088C08091BC
:104FE0005803813209F083C080915C0390915D0386
:104FF000029708F07CC08091E800877F8093E800EA
:105000008091E80082FD05C0809156038111F8CFA0
:105010006EC02091F3008091F20090E0922B0297F5
:1050200031F48091F100813011F0863021F48091CB
:10503000F10080934B038091E8008B7754C08091FE
:105040005803813A09F053C080915C0390915D034D
:10505000892B09F04CC08091E800877F8093E8009D
:105060008091E80080FFFCCF80915F0137C0809184
:1050700058038132E1F580915C0390915D03892BA7
:10508000B1F58091E800877F8093E8000E941C1DA5
:1050900080915A0380935F010E94622628C080910C
:1050A0005803813221F58091E800877F8093E800E2
:1050B0000E941C1D80915B0380934A0318C080915D
:1050C0005803813AA1F48091E800877F8093E8003B
:1050D0008091E80080FFFCCF80914A038093F1002B
:1050E0008091E8008E778093E8000E941C1D8091DB
:1050F000E80083FFCEC18091580390915903492F56
:1051000050E04A30510508F0C4C1FA01E759FF4F99
:105110000C946F2E803821F0823809F0BAC108C093
:105120008091540390915503992389F082600FC0B8
:1051300080915C038F70873008F0ABC18093E900E9
:105140008091EB0085FB882780F91092E90090910F
:10515000E800977F9093E8008093F1001092F100AF
:1051600065C1282F2D7F09F094C1882319F0823062
:1051700061F08FC180915A03813009F08AC1933068
:1051800009F080E0809355032EC080915A0381116D
:105190002AC080915C038F702FEF280F263008F013
:1051A00078C18093E9002091EB0020FF1CC0933070
:1051B00021F48091EB00806214C09091EB0090612B
:1051C0009093EB0021E030E0A90102C0440F551F8D
:1051D0008A95E2F74093EA001092EA008091EB0092
:1051E00088608093EB001092E9008091E800877F4F
:1051F00020C181114EC110915A031F778091E300A5
:105200008078812B8093E3008091E800877F8093F2
:10521000E8000E941C1D8091E80080FFFCCF809177
:10522000E30080688093E300111102C082E001C0B6
:1052300083E0809356032DC18058823008F029C145
:1052400080915A0390915B038C3D53E0950779F56B
:1052500083E08A838AE289834FB7F894DE0113964C
:1052600020E03EE051E2E32FF0E050935700E4915C
:1052700020FF03C0E295EF703F5FEF708E2F90E04C
:10528000EA3010F0C79601C0C0968D939D932F5FB2
:10529000243149F74FBF8091E800877F8093E80071
:1052A0006AE270E0CE0101960E94A81EAEC0409155
:1052B0005C0350915D03292F332723303105A9F07A
:1052C00068F42130310509F4F3C02230310509F0CA
:1052D000E0C08BE390E0E5ECFAE044C02132310518
:1052E00021F12232310571F1D4C099278130910525
:1052F000A1F058F0029709F0CCC0E2E1FBE0E491A4
:105300008E2F90E0E2E1FBE02AC0ECE3FBE0E491C9
:105310008E2F90E0ECE3FBE022C0EAE2FBE0E491B8
:105320008E2F90E0EAE2FBE01AC04115510509F426
:10533000C4C04130510509F0ACC089E090E0E0EF15
:10534000FAE010C04115510509F4BCC041305105C7
:1053500009F09FC082E390E0E3E5FAE003C0009724
:1053600009F497C02091E800277F2093E80020915E
:105370005E0330915F038217930708F49C0140E0BD
:105380002115310589F180915603882309F43DC028
:105390008530D9F18091E80083FD37C08091E80025
:1053A00082FD2FC08091E80080FFEACF4091F3009A
:1053B0008091F20090E0942B2115310559F088304E
:1053C000910540F444914093F10031962150310908
:1053D0000196F2CF41E0089709F040E08091E800A3
:1053E0008E778093E800CCCF4111CDCF0AC0809159
:1053F0005603882351F0853041F08091E80083FD09
:1054000004C08091E80082FFF2CF8091E8008B77A2
:105410008093E8003EC08038E1F58091E800877F06
:105420008093E800809157038093F1008091E80019
:105430008E778093E8000E941C1D2BC0811129C02B
:1054400080915A0390915B039927029714F58091FC
:10545000E800877F8093E80010915A031093570368
:105460000E941C1D111106C08091E30087FD02C03F
:1054700081E001C084E08093560342E061EC81E06A
:105480000E943B1D42E261EC82E00E943B1D809144
:1054900056038091E80083FF1AC08091E800877F5F
:1054A0008093E8008091EB0080628093EB000FC056
:1054B00082E190E0E0E0FBE055CF89E090E0E7EDAD
:1054C000FAE050CF80E490E0E5E8FAE04BCFAA960E
:1054D0000FB6F894DEBF0FBECDBFDF91CF911F9105
:1054E0000895E9EBF2E0438121E1421B08F440E03A
:1054F00021E0628181810C940921E9EBF2E0438192
:1055000021E1420F08F44FEF21E0628181810C9488
:105510000921E9EBF2E0628121E1621B08F460E01D
:1055200021E0438181810C940921E9EBF2E0628161
:1055300021E1620F08F46FEF21E0438181810C9437
:105540000921E9EBF2E0818121E043816281885009
:105550000C940921E9EBF2E0818121E04381628131
:10556000885F0C9409218091B902982F969591300B
:1055700021F0817082608093B9020895CF92DF920A
:10558000EF92FF926B017C010E94B32AB701A60142
:1055900088E090E0FF90EF90DF90CF900C942D2E5C
:1055A0008091B90280FF1EC0817082608093B90231
:1055B00080917C02816080937C02662351F060912F
:1055C000B9027091BA028091BB029091BC020E9414
:1055D000BE2A20E04091BC026091BB028091BA02D9
:1055E0000C94092108958091B9028695815009F49F
:1055F00081E061E00C94D02A61E081E00C94D02A33
:10560000E9EBF2E083E0808311828FEF8283838372
:105610001482AAE7B2E012968C91129783601296D8
:105620008C9360817181828193810C94BE2A109247
:10563000B9008CE08093B80008959F92AF92BF921A
:10564000CF92DF92EF92FF920F931F93CF93DF934E
:10565000B82EEB010E94471F6C01C431D10558F0F0
:10566000CF3F8FEFD80759F0CE0164E170E00E9480
:10567000EA2D7B0107C0EE24E394F12C03C025E062
:10568000E22EF12C84E8A82E94EA992E1092BC0008
:105690009092BC000E94471F8C018091BC0087FD46
:1056A00008C00E94471F801B910B8E159F05A8F311
:1056B0002AC08091B900887F883041F08091B9007C
:1056C000887F803119F00FEF1FEF1FC0B092BB0031
:1056D000A092BC000E94471F8C018091BC0087FDF6
:1056E00008C00E94471F801B910B8E159F05A8F3D1
:1056F0000AC08091B900887F883111F0803419F791
:1057000000E010E00EC00EEF1FEFCF3F8FEFD80785
:1057100009F4BCCFC6010E942C1F8C179D0708F40A
:10572000B5CFC801DF91CF911F910F91FF90EF90FE
:10573000DF90CF90BF90AF909F9008950F931F93ED
:10574000CF93DF93EB018093BB0084E88093BC0090
:105750000E94471F8C018091BC0087FD0EC0CF3F87
:105760008FEFD807C1F30E94471F801B910B8C1746
:105770009D0788F38EEF9FEF0CC02091B900287F22
:1057800081E090E0283211F480E090E091958195DD
:105790009109DF91CF911F910F910895CF92DF92E0
:1057A000EF92FF920F931F93CF93DF936B018A01C8
:1057B0007901B9010E941D2BE6010C0D1D1DC017BA
:1057C000D10761F424E92093BC00DF91CF911F91B0
:1057D0000F91FF90EF90DF90CF90089597FDF2CF5B
:1057E000B70189910E949E2BEACFCF92DF92EF9270
:1057F000FF920F931F93CF93DF93C62F6A01790116
:10580000B8010E941D2B97FD11C0B8018C2F0E947A
:105810009E2BE601EC0CFD1CCE15DF0539F097FD43
:1058200005C0B80189910E949E2BF6CF24E92093F0
:10583000BC00DF91CF911F910F91FF90EF90DF900F
:10584000CF90089584E98093BC0008958EE14A9B2F
:1058500002C08150E1F74A9BFECF08955A9880E23A
:105860008A95F1F75A9A0895FC012AE02A95F1F7F2
:1058700028E090E080E031E040E14A95F1F7880FC0
:105880004A9B02C08160932700C0000040E14A9516
:10589000F1F7215089F720E12A95F1F729B100C0ED
:1058A000000030E13A95F1F722FB222720F99227F8
:1058B0002081920F90830895EF92FF920F931F9390
:1058C000CF93DF931F92CDB7DEB719828C017C0195
:1058D000E60EF11C0E151F0551F00E94262CCE017C
:1058E00001960E94342CF80181938F01F3CF81E05F
:1058F0009981911180E00F90DF91CF911F910F91CD
:10590000FF90EF900895529A5A9A089552985A9A91
:10591000EA9AE9E6F0E080818F7C80830895615007
:1059200091E001C0990F6A95EAF720E031E09923F0
:1059300061F0492F482319F05A9A232701C05A9839
:1059400040E24A95F1F79695F2CF222311F05A9A48
:1059500001C05A9880E28A95F1F75A980895FF920B
:105960000F931F93CF93DF93EC018C01060F111D52
:10597000C017D10741F0F9900E942E2C68E08F2DBE
:105980000E948F2CF5CFDF91CF911F910F91FF9047
:1059900008951F920F920FB60F9211240F931F9329
:1059A0002F933F934F935F936F937F938F939F9327
:1059B000AF93BF93EF93FF93CF93DF931F92CDB736
:1059C000DEB719820E94262CCE0101960E94342C4B
:1059D000082F069506950695902F96959570202F81
:1059E0002570920F292F237096959695920F8770A8
:1059F00089135FC0898181115CC0083008F059C0EB
:105A000080E18A95F1F75A9A529A82E08A95F1F7E5
:105A100000C05A9888E0089F80011124D801AE5D2B
:105A2000BE4F1696ED91FC9117973097A9F06091B3
:105A3000C5017091C60114962D913C911597260FC2
:105A4000371F11968D919C911297680F791F1396AD
:105A50004C9113978C910995F801EE5DFE4F63818F
:105A6000662351F08091C5019091C6012481358152
:105A7000820F931F0E94AF2C0E942E2C80E18A95EA
:105A8000F1F75A9852985A9A80E18A95F1F7F801FD
:105A9000EE5DFE4F6081662351F08091C5019091CB
:105AA000C60121813281820F931F0E945C2C0E94CB
:105AB000262C0F90DF91CF91FF91EF91BF91AF9185
:105AC0009F918F917F916F915F914F913F912F9116
:105AD0001F910F910F900FBE0F901F9018950F936D
